{
  "_format": "hh-sol-artifact-1",
  "contractName": "MockTimeSwapRouter",
  "sourceName": "contracts/test/MockTimeSwapRouter.sol",
  "abi": [
    {
      "inputs": [
        {
          "internalType": "address",
          "name": "_factory",
          "type": "address"
        },
        {
          "internalType": "address",
          "name": "_WETH9",
          "type": "address"
        }
      ],
      "stateMutability": "nonpayable",
      "type": "constructor"
    },
    {
      "inputs": [],
      "name": "WETH9",
      "outputs": [
        {
          "internalType": "address",
          "name": "",
          "type": "address"
        }
      ],
      "stateMutability": "view",
      "type": "function"
    },
    {
      "inputs": [
        {
          "internalType": "int256",
          "name": "amount0Delta",
          "type": "int256"
        },
        {
          "internalType": "int256",
          "name": "amount1Delta",
          "type": "int256"
        },
        {
          "internalType": "bytes",
          "name": "_data",
          "type": "bytes"
        }
      ],
      "name": "etcswapV3SwapCallback",
      "outputs": [],
      "stateMutability": "nonpayable",
      "type": "function"
    },
    {
      "inputs": [
        {
          "components": [
            {
              "internalType": "bytes",
              "name": "path",
              "type": "bytes"
            },
            {
              "internalType": "address",
              "name": "recipient",
              "type": "address"
            },
            {
              "internalType": "uint256",
              "name": "deadline",
              "type": "uint256"
            },
            {
              "internalType": "uint256",
              "name": "amountIn",
              "type": "uint256"
            },
            {
              "internalType": "uint256",
              "name": "amountOutMinimum",
              "type": "uint256"
            }
          ],
          "internalType": "struct ISwapRouter.ExactInputParams",
          "name": "params",
          "type": "tuple"
        }
      ],
      "name": "exactInput",
      "outputs": [
        {
          "internalType": "uint256",
          "name": "amountOut",
          "type": "uint256"
        }
      ],
      "stateMutability": "payable",
      "type": "function"
    },
    {
      "inputs": [
        {
          "components": [
            {
              "internalType": "address",
              "name": "tokenIn",
              "type": "address"
            },
            {
              "internalType": "address",
              "name": "tokenOut",
              "type": "address"
            },
            {
              "internalType": "uint24",
              "name": "fee",
              "type": "uint24"
            },
            {
              "internalType": "address",
              "name": "recipient",
              "type": "address"
            },
            {
              "internalType": "uint256",
              "name": "deadline",
              "type": "uint256"
            },
            {
              "internalType": "uint256",
              "name": "amountIn",
              "type": "uint256"
            },
            {
              "internalType": "uint256",
              "name": "amountOutMinimum",
              "type": "uint256"
            },
            {
              "internalType": "uint160",
              "name": "sqrtPriceLimitX96",
              "type": "uint160"
            }
          ],
          "internalType": "struct ISwapRouter.ExactInputSingleParams",
          "name": "params",
          "type": "tuple"
        }
      ],
      "name": "exactInputSingle",
      "outputs": [
        {
          "internalType": "uint256",
          "name": "amountOut",
          "type": "uint256"
        }
      ],
      "stateMutability": "payable",
      "type": "function"
    },
    {
      "inputs": [
        {
          "components": [
            {
              "internalType": "bytes",
              "name": "path",
              "type": "bytes"
            },
            {
              "internalType": "address",
              "name": "recipient",
              "type": "address"
            },
            {
              "internalType": "uint256",
              "name": "deadline",
              "type": "uint256"
            },
            {
              "internalType": "uint256",
              "name": "amountOut",
              "type": "uint256"
            },
            {
              "internalType": "uint256",
              "name": "amountInMaximum",
              "type": "uint256"
            }
          ],
          "internalType": "struct ISwapRouter.ExactOutputParams",
          "name": "params",
          "type": "tuple"
        }
      ],
      "name": "exactOutput",
      "outputs": [
        {
          "internalType": "uint256",
          "name": "amountIn",
          "type": "uint256"
        }
      ],
      "stateMutability": "payable",
      "type": "function"
    },
    {
      "inputs": [
        {
          "components": [
            {
              "internalType": "address",
              "name": "tokenIn",
              "type": "address"
            },
            {
              "internalType": "address",
              "name": "tokenOut",
              "type": "address"
            },
            {
              "internalType": "uint24",
              "name": "fee",
              "type": "uint24"
            },
            {
              "internalType": "address",
              "name": "recipient",
              "type": "address"
            },
            {
              "internalType": "uint256",
              "name": "deadline",
              "type": "uint256"
            },
            {
              "internalType": "uint256",
              "name": "amountOut",
              "type": "uint256"
            },
            {
              "internalType": "uint256",
              "name": "amountInMaximum",
              "type": "uint256"
            },
            {
              "internalType": "uint160",
              "name": "sqrtPriceLimitX96",
              "type": "uint160"
            }
          ],
          "internalType": "struct ISwapRouter.ExactOutputSingleParams",
          "name": "params",
          "type": "tuple"
        }
      ],
      "name": "exactOutputSingle",
      "outputs": [
        {
          "internalType": "uint256",
          "name": "amountIn",
          "type": "uint256"
        }
      ],
      "stateMutability": "payable",
      "type": "function"
    },
    {
      "inputs": [],
      "name": "factory",
      "outputs": [
        {
          "internalType": "address",
          "name": "",
          "type": "address"
        }
      ],
      "stateMutability": "view",
      "type": "function"
    },
    {
      "inputs": [
        {
          "internalType": "bytes[]",
          "name": "data",
          "type": "bytes[]"
        }
      ],
      "name": "multicall",
      "outputs": [
        {
          "internalType": "bytes[]",
          "name": "results",
          "type": "bytes[]"
        }
      ],
      "stateMutability": "payable",
      "type": "function"
    },
    {
      "inputs": [],
      "name": "refundETH",
      "outputs": [],
      "stateMutability": "payable",
      "type": "function"
    },
    {
      "inputs": [
        {
          "internalType": "address",
          "name": "token",
          "type": "address"
        },
        {
          "internalType": "uint256",
          "name": "value",
          "type": "uint256"
        },
        {
          "internalType": "uint256",
          "name": "deadline",
          "type": "uint256"
        },
        {
          "internalType": "uint8",
          "name": "v",
          "type": "uint8"
        },
        {
          "internalType": "bytes32",
          "name": "r",
          "type": "bytes32"
        },
        {
          "internalType": "bytes32",
          "name": "s",
          "type": "bytes32"
        }
      ],
      "name": "selfPermit",
      "outputs": [],
      "stateMutability": "payable",
      "type": "function"
    },
    {
      "inputs": [
        {
          "internalType": "address",
          "name": "token",
          "type": "address"
        },
        {
          "internalType": "uint256",
          "name": "nonce",
          "type": "uint256"
        },
        {
          "internalType": "uint256",
          "name": "expiry",
          "type": "uint256"
        },
        {
          "internalType": "uint8",
          "name": "v",
          "type": "uint8"
        },
        {
          "internalType": "bytes32",
          "name": "r",
          "type": "bytes32"
        },
        {
          "internalType": "bytes32",
          "name": "s",
          "type": "bytes32"
        }
      ],
      "name": "selfPermitAllowed",
      "outputs": [],
      "stateMutability": "payable",
      "type": "function"
    },
    {
      "inputs": [
        {
          "internalType": "address",
          "name": "token",
          "type": "address"
        },
        {
          "internalType": "uint256",
          "name": "nonce",
          "type": "uint256"
        },
        {
          "internalType": "uint256",
          "name": "expiry",
          "type": "uint256"
        },
        {
          "internalType": "uint8",
          "name": "v",
          "type": "uint8"
        },
        {
          "internalType": "bytes32",
          "name": "r",
          "type": "bytes32"
        },
        {
          "internalType": "bytes32",
          "name": "s",
          "type": "bytes32"
        }
      ],
      "name": "selfPermitAllowedIfNecessary",
      "outputs": [],
      "stateMutability": "payable",
      "type": "function"
    },
    {
      "inputs": [
        {
          "internalType": "address",
          "name": "token",
          "type": "address"
        },
        {
          "internalType": "uint256",
          "name": "value",
          "type": "uint256"
        },
        {
          "internalType": "uint256",
          "name": "deadline",
          "type": "uint256"
        },
        {
          "internalType": "uint8",
          "name": "v",
          "type": "uint8"
        },
        {
          "internalType": "bytes32",
          "name": "r",
          "type": "bytes32"
        },
        {
          "internalType": "bytes32",
          "name": "s",
          "type": "bytes32"
        }
      ],
      "name": "selfPermitIfNecessary",
      "outputs": [],
      "stateMutability": "payable",
      "type": "function"
    },
    {
      "inputs": [
        {
          "internalType": "uint256",
          "name": "_time",
          "type": "uint256"
        }
      ],
      "name": "setTime",
      "outputs": [],
      "stateMutability": "nonpayable",
      "type": "function"
    },
    {
      "inputs": [
        {
          "internalType": "address",
          "name": "token",
          "type": "address"
        },
        {
          "internalType": "uint256",
          "name": "amountMinimum",
          "type": "uint256"
        },
        {
          "internalType": "address",
          "name": "recipient",
          "type": "address"
        }
      ],
      "name": "sweepToken",
      "outputs": [],
      "stateMutability": "payable",
      "type": "function"
    },
    {
      "inputs": [
        {
          "internalType": "address",
          "name": "token",
          "type": "address"
        },
        {
          "internalType": "uint256",
          "name": "amountMinimum",
          "type": "uint256"
        },
        {
          "internalType": "address",
          "name": "recipient",
          "type": "address"
        },
        {
          "internalType": "uint256",
          "name": "feeBips",
          "type": "uint256"
        },
        {
          "internalType": "address",
          "name": "feeRecipient",
          "type": "address"
        }
      ],
      "name": "sweepTokenWithFee",
      "outputs": [],
      "stateMutability": "payable",
      "type": "function"
    },
    {
      "inputs": [
        {
          "internalType": "uint256",
          "name": "amountMinimum",
          "type": "uint256"
        },
        {
          "internalType": "address",
          "name": "recipient",
          "type": "address"
        }
      ],
      "name": "unwrapWETH9",
      "outputs": [],
      "stateMutability": "payable",
      "type": "function"
    },
    {
      "inputs": [
        {
          "internalType": "uint256",
          "name": "amountMinimum",
          "type": "uint256"
        },
        {
          "internalType": "address",
          "name": "recipient",
          "type": "address"
        },
        {
          "internalType": "uint256",
          "name": "feeBips",
          "type": "uint256"
        },
        {
          "internalType": "address",
          "name": "feeRecipient",
          "type": "address"
        }
      ],
      "name": "unwrapWETH9WithFee",
      "outputs": [],
      "stateMutability": "payable",
      "type": "function"
    },
    {
      "stateMutability": "payable",
      "type": "receive"
    }
  ],
  "bytecode": "0x60c06040526000196000553480156200001757600080fd5b5060405162003089380380620030898339810160408190526200003a9162000076565b6001600160601b0319606092831b8116608052911b1660a052620000ad565b80516001600160a01b03811681146200007157600080fd5b919050565b6000806040838503121562000089578182fd5b620000948362000059565b9150620000a46020840162000059565b90509250929050565b60805160601c60a05160601c612f80620001096000398061014a52806105c352806106ed528061078752806107c752806108f152806118a452806119045280611985525080610c355280610f4d5280611e685250612f806000f3fe60806040526004361061012d5760003560e01c8063b49c5b7e116100a5578063db3e219811610074578063e0e189a011610059578063e0e189a01461033d578063f28c049814610350578063f3995c6714610363576101d8565b8063db3e219814610317578063df2ab5bb1461032a576101d8565b8063b49c5b7e146102bc578063c04b8d59146102dc578063c2e3140a146102ef578063c45a015514610302576101d8565b806349404b7c116100fc5780639b2c0a37116100e15780639b2c0a3714610276578063a4a78f0c14610289578063ac9650d81461029c576101d8565b806349404b7c146102415780634aa4a4fc14610254576101d8565b806312210e8a146101dd5780633beb26c4146101e5578063414bf389146102055780634659a4941461022e576101d8565b366101d8573373ffffffffffffffffffffffffffffffffffffffff7f000000000000000000000000000000000000000000000000000000000000000016146101d657604080517f08c379a000000000000000000000000000000000000000000000000000000000815260206004820152600960248201527f4e6f742057455448390000000000000000000000000000000000000000000000604482015290519081900360640190fd5b005b600080fd5b6101d6610376565b3480156101f157600080fd5b506101d6610200366004612b41565b610388565b610218610213366004612a3a565b61038d565b6040516102259190612e4b565b60405180910390f35b6101d661023c3660046127b8565b6104ff565b6101d661024f366004612b59565b6105bf565b34801561026057600080fd5b50610269610785565b6040516102259190612c91565b6101d6610284366004612b88565b6107a9565b6101d66102973660046127b8565b6109c1565b6102af6102aa366004612818565b610a96565b6040516102259190612d04565b3480156102c857600080fd5b506101d66102d73660046128aa565b610bf0565b6102186102ea36600461298f565b610d37565b6101d66102fd3660046127b8565b610e96565b34801561030e57600080fd5b50610269610f4b565b610218610325366004612a3a565b610f6f565b6101d6610338366004612719565b6110ff565b6101d661034b36600461275a565b61121c565b61021861035e366004612a56565b611382565b6101d66103713660046127b8565b6114b6565b471561038657610386334761154e565b565b600155565b600081608001358061039d61169c565b111561040a57604080517f08c379a000000000000000000000000000000000000000000000000000000000815260206004820152601360248201527f5472616e73616374696f6e20746f6f206f6c6400000000000000000000000000604482015290519081900360640190fd5b6104b060a084013561042260808601606087016126f6565b610433610100870160e088016126f6565b604080518082019091528061044b60208a018a6126f6565b61045b60608b0160408c01612b1e565b61046b60408c0160208d016126f6565b60405160200161047d93929190612c1b565b60405160208183030381529060405281526020013373ffffffffffffffffffffffffffffffffffffffff168152506116a2565b91508260c001358210156104f9576040517f08c379a00000000000000000000000000000000000000000000000000000000081526004016104f090612dcc565b60405180910390fd5b50919050565b604080517f8fcbaf0c00000000000000000000000000000000000000000000000000000000815233600482015230602482015260448101879052606481018690526001608482015260ff851660a482015260c4810184905260e48101839052905173ffffffffffffffffffffffffffffffffffffffff881691638fcbaf0c9161010480830192600092919082900301818387803b15801561059f57600080fd5b505af11580156105b3573d6000803e3d6000fd5b50505050505050505050565b60007f000000000000000000000000000000000000000000000000000000000000000073ffffffffffffffffffffffffffffffffffffffff166370a08231306040518263ffffffff1660e01b8152600401808273ffffffffffffffffffffffffffffffffffffffff16815260200191505060206040518083038186803b15801561064857600080fd5b505afa15801561065c573d6000803e3d6000fd5b505050506040513d602081101561067257600080fd5b50519050828110156106e557604080517f08c379a000000000000000000000000000000000000000000000000000000000815260206004820152601260248201527f496e73756666696369656e742057455448390000000000000000000000000000604482015290519081900360640190fd5b8015610780577f000000000000000000000000000000000000000000000000000000000000000073ffffffffffffffffffffffffffffffffffffffff16632e1a7d4d826040518263ffffffff1660e01b815260040180828152602001915050600060405180830381600087803b15801561075e57600080fd5b505af1158015610772573d6000803e3d6000fd5b50505050610780828261154e565b505050565b7f000000000000000000000000000000000000000000000000000000000000000081565b6000821180156107ba575060648211155b6107c357600080fd5b60007f000000000000000000000000000000000000000000000000000000000000000073ffffffffffffffffffffffffffffffffffffffff166370a08231306040518263ffffffff1660e01b8152600401808273ffffffffffffffffffffffffffffffffffffffff16815260200191505060206040518083038186803b15801561084c57600080fd5b505afa158015610860573d6000803e3d6000fd5b505050506040513d602081101561087657600080fd5b50519050848110156108e957604080517f08c379a000000000000000000000000000000000000000000000000000000000815260206004820152601260248201527f496e73756666696369656e742057455448390000000000000000000000000000604482015290519081900360640190fd5b80156109ba577f000000000000000000000000000000000000000000000000000000000000000073ffffffffffffffffffffffffffffffffffffffff16632e1a7d4d826040518263ffffffff1660e01b815260040180828152602001915050600060405180830381600087803b15801561096257600080fd5b505af1158015610976573d6000803e3d6000fd5b505050506000612710610992858461182890919063ffffffff16565b8161099957fe5b04905080156109ac576109ac838261154e565b6109b88582840361154e565b505b5050505050565b604080517fdd62ed3e00000000000000000000000000000000000000000000000000000000815233600482015230602482015290517fffffffffffffffffffffffffffffffffffffffffffffffffffffffffffffffff9173ffffffffffffffffffffffffffffffffffffffff89169163dd62ed3e91604480820192602092909190829003018186803b158015610a5657600080fd5b505afa158015610a6a573d6000803e3d6000fd5b505050506040513d6020811015610a8057600080fd5b505110156109b8576109b88686868686866104ff565b60608167ffffffffffffffff81118015610aaf57600080fd5b50604051908082528060200260200182016040528015610ae357816020015b6060815260200190600190039081610ace5790505b50905060005b82811015610be95760008030868685818110610b0157fe5b9050602002810190610b139190612e54565b604051610b21929190612c81565b600060405180830381855af49150503d8060008114610b5c576040519150601f19603f3d011682016040523d82523d6000602084013e610b61565b606091505b509150915081610bc757604481511015610b7a57600080fd5b60048101905080806020019051810190610b949190612925565b6040517f08c379a00000000000000000000000000000000000000000000000000000000081526004016104f09190612d82565b80848481518110610bd457fe5b60209081029190910101525050600101610ae9565b5092915050565b6000841380610bff5750600083135b610c0857600080fd5b6000610c1682840184612a8e565b90506000806000610c2a8460000151611852565b925092509250610c5c7f0000000000000000000000000000000000000000000000000000000000000000848484611883565b5060008060008a13610c9d578473ffffffffffffffffffffffffffffffffffffffff168473ffffffffffffffffffffffffffffffffffffffff161089610cce565b8373ffffffffffffffffffffffffffffffffffffffff168573ffffffffffffffffffffffffffffffffffffffff16108a5b915091508115610ced57610ce885876020015133846118a2565b6105b3565b8551610cf890611a80565b15610d1d578551610d0890611a8c565b8652610d178133600089611ac1565b506105b3565b806000819055508394506105b385876020015133846118a2565b6000816040015180610d4761169c565b1115610db457604080517f08c379a000000000000000000000000000000000000000000000000000000000815260206004820152601360248201527f5472616e73616374696f6e20746f6f206f6c6400000000000000000000000000604482015290519081900360640190fd5b335b6000610dc58560000151611a80565b9050610e1e856060015182610dde578660200151610de0565b305b60006040518060400160405280610dfa8b60000151611c7d565b81526020018773ffffffffffffffffffffffffffffffffffffffff168152506116a2565b60608601528015610e3e578451309250610e3790611a8c565b8552610e4b565b8460600151935050610e51565b50610db6565b8360800151831015610e8f576040517f08c379a00000000000000000000000000000000000000000000000000000000081526004016104f090612dcc565b5050919050565b604080517fdd62ed3e0000000000000000000000000000000000000000000000000000000081523360048201523060248201529051869173ffffffffffffffffffffffffffffffffffffffff89169163dd62ed3e91604480820192602092909190829003018186803b158015610f0b57600080fd5b505afa158015610f1f573d6000803e3d6000fd5b505050506040513d6020811015610f3557600080fd5b505110156109b8576109b88686868686866114b6565b7f000000000000000000000000000000000000000000000000000000000000000081565b6000816080013580610f7f61169c565b1115610fec57604080517f08c379a000000000000000000000000000000000000000000000000000000000815260206004820152601360248201527f5472616e73616374696f6e20746f6f206f6c6400000000000000000000000000604482015290519081900360640190fd5b61109560a084013561100460808601606087016126f6565b611015610100870160e088016126f6565b604051806040016040528088602001602081019061103391906126f6565b61104360608b0160408c01612b1e565b61105060208c018c6126f6565b60405160200161106293929190612c1b565b60405160208183030381529060405281526020013373ffffffffffffffffffffffffffffffffffffffff16815250611ac1565b91508260c001358211156110d5576040517f08c379a00000000000000000000000000000000000000000000000000000000081526004016104f090612d95565b507fffffffffffffffffffffffffffffffffffffffffffffffffffffffffffffffff600055919050565b60008373ffffffffffffffffffffffffffffffffffffffff166370a08231306040518263ffffffff1660e01b8152600401808273ffffffffffffffffffffffffffffffffffffffff16815260200191505060206040518083038186803b15801561116857600080fd5b505afa15801561117c573d6000803e3d6000fd5b505050506040513d602081101561119257600080fd5b505190508281101561120557604080517f08c379a000000000000000000000000000000000000000000000000000000000815260206004820152601260248201527f496e73756666696369656e7420746f6b656e0000000000000000000000000000604482015290519081900360640190fd5b801561121657611216848383611c8c565b50505050565b60008211801561122d575060648211155b61123657600080fd5b60008573ffffffffffffffffffffffffffffffffffffffff166370a08231306040518263ffffffff1660e01b8152600401808273ffffffffffffffffffffffffffffffffffffffff16815260200191505060206040518083038186803b15801561129f57600080fd5b505afa1580156112b3573d6000803e3d6000fd5b505050506040513d60208110156112c957600080fd5b505190508481101561133c57604080517f08c379a000000000000000000000000000000000000000000000000000000000815260206004820152601260248201527f496e73756666696369656e7420746f6b656e0000000000000000000000000000604482015290519081900360640190fd5b80156109b85760006127106113518386611828565b8161135857fe5b049050801561136c5761136c878483611c8c565b6113798786838503611c8c565b50505050505050565b600081604001358061139261169c565b11156113ff57604080517f08c379a000000000000000000000000000000000000000000000000000000000815260206004820152601360248201527f5472616e73616374696f6e20746f6f206f6c6400000000000000000000000000604482015290519081900360640190fd5b611472606084013561141760408601602087016126f6565b604080518082019091526000908061142f8980612e54565b8080601f01602080910402602001604051908101604052809392919081815260200183838082843760009201919091525050509082525033602090910152611ac1565b50600054915082608001358211156110d5576040517f08c379a00000000000000000000000000000000000000000000000000000000081526004016104f090612d95565b604080517fd505accf000000000000000000000000000000000000000000000000000000008152336004820152306024820152604481018790526064810186905260ff8516608482015260a4810184905260c48101839052905173ffffffffffffffffffffffffffffffffffffffff88169163d505accf9160e480830192600092919082900301818387803b15801561059f57600080fd5b6040805160008082526020820190925273ffffffffffffffffffffffffffffffffffffffff84169083906040518082805190602001908083835b602083106115c557805182527fffffffffffffffffffffffffffffffffffffffffffffffffffffffffffffffe09092019160209182019101611588565b6001836020036101000a03801982511681845116808217855250505050505090500191505060006040518083038185875af1925050503d8060008114611627576040519150601f19603f3d011682016040523d82523d6000602084013e61162c565b606091505b505090508061078057604080517f08c379a000000000000000000000000000000000000000000000000000000000815260206004820152600360248201527f5354450000000000000000000000000000000000000000000000000000000000604482015290519081900360640190fd5b60015490565b600073ffffffffffffffffffffffffffffffffffffffff84166116c3573093505b60008060006116d58560000151611852565b9194509250905073ffffffffffffffffffffffffffffffffffffffff80831690841610600080611706868686611e61565b73ffffffffffffffffffffffffffffffffffffffff1663128acb088b8561172c8f611e9f565b73ffffffffffffffffffffffffffffffffffffffff8e161561174e578d611774565b8761176d5773fffd8963efd1fc6a506488495d951d5263988d25611774565b6401000276a45b8d6040516020016117859190612e03565b6040516020818303038152906040526040518663ffffffff1660e01b81526004016117b4959493929190612cb2565b6040805180830381600087803b1580156117cd57600080fd5b505af11580156117e1573d6000803e3d6000fd5b505050506040513d601f19601f820116820180604052508101906118059190612887565b91509150826118145781611816565b805b6000039b9a5050505050505050505050565b60008215806118435750508181028183828161184057fe5b04145b61184c57600080fd5b92915050565b600080806118608482611ed1565b925061186d846014611fd1565b905061187a846017611ed1565b91509193909250565b6000611899856118948686866120c1565b61213e565b95945050505050565b7f000000000000000000000000000000000000000000000000000000000000000073ffffffffffffffffffffffffffffffffffffffff168473ffffffffffffffffffffffffffffffffffffffff161480156118fd5750804710155b15611a46577f000000000000000000000000000000000000000000000000000000000000000073ffffffffffffffffffffffffffffffffffffffff1663d0e30db0826040518263ffffffff1660e01b81526004016000604051808303818588803b15801561196a57600080fd5b505af115801561197e573d6000803e3d6000fd5b50505050507f000000000000000000000000000000000000000000000000000000000000000073ffffffffffffffffffffffffffffffffffffffff1663a9059cbb83836040518363ffffffff1660e01b8152600401808373ffffffffffffffffffffffffffffffffffffffff16815260200182815260200192505050602060405180830381600087803b158015611a1457600080fd5b505af1158015611a28573d6000803e3d6000fd5b505050506040513d6020811015611a3e57600080fd5b506112169050565b73ffffffffffffffffffffffffffffffffffffffff8316301415611a7457611a6f848383611c8c565b611216565b6112168484848461216e565b8051604211155b919050565b805160609061184c9083906017907fffffffffffffffffffffffffffffffffffffffffffffffffffffffffffffffe90161234b565b600073ffffffffffffffffffffffffffffffffffffffff8416611ae2573093505b6000806000611af48560000151611852565b9194509250905073ffffffffffffffffffffffffffffffffffffffff80841690831610600080611b25858786611e61565b73ffffffffffffffffffffffffffffffffffffffff1663128acb088b85611b4b8f611e9f565b60000373ffffffffffffffffffffffffffffffffffffffff8e1615611b70578d611b96565b87611b8f5773fffd8963efd1fc6a506488495d951d5263988d25611b96565b6401000276a45b8d604051602001611ba79190612e03565b6040516020818303038152906040526040518663ffffffff1660e01b8152600401611bd6959493929190612cb2565b6040805180830381600087803b158015611bef57600080fd5b505af1158015611c03573d6000803e3d6000fd5b505050506040513d601f19601f82011682018060405250810190611c279190612887565b91509150600083611c3c578183600003611c42565b82826000035b909850905073ffffffffffffffffffffffffffffffffffffffff8a16611c6e578b8114611c6e57600080fd5b50505050505050949350505050565b606061184c826000602b61234b565b6040805173ffffffffffffffffffffffffffffffffffffffff8481166024830152604480830185905283518084039091018152606490920183526020820180517bffffffffffffffffffffffffffffffffffffffffffffffffffffffff167fa9059cbb000000000000000000000000000000000000000000000000000000001781529251825160009485949389169392918291908083835b60208310611d6157805182527fffffffffffffffffffffffffffffffffffffffffffffffffffffffffffffffe09092019160209182019101611d24565b6001836020036101000a0380198251168184511680821785525050505050509050019150506000604051808303816000865af19150503d8060008114611dc3576040519150601f19603f3d011682016040523d82523d6000602084013e611dc8565b606091505b5091509150818015611df6575080511580611df65750808060200190516020811015611df357600080fd5b50515b6109ba57604080517f08c379a000000000000000000000000000000000000000000000000000000000815260206004820152600260248201527f5354000000000000000000000000000000000000000000000000000000000000604482015290519081900360640190fd5b6000611e977f0000000000000000000000000000000000000000000000000000000000000000611e928686866120c1565b612532565b949350505050565b60007f80000000000000000000000000000000000000000000000000000000000000008210611ecd57600080fd5b5090565b600081826014011015611f4557604080517f08c379a000000000000000000000000000000000000000000000000000000000815260206004820152601260248201527f746f416464726573735f6f766572666c6f770000000000000000000000000000604482015290519081900360640190fd5b8160140183511015611fb857604080517f08c379a000000000000000000000000000000000000000000000000000000000815260206004820152601560248201527f746f416464726573735f6f75744f66426f756e64730000000000000000000000604482015290519081900360640190fd5b5001602001516c01000000000000000000000000900490565b60008182600301101561204557604080517f08c379a000000000000000000000000000000000000000000000000000000000815260206004820152601160248201527f746f55696e7432345f6f766572666c6f77000000000000000000000000000000604482015290519081900360640190fd5b81600301835110156120b857604080517f08c379a000000000000000000000000000000000000000000000000000000000815260206004820152601460248201527f746f55696e7432345f6f75744f66426f756e6473000000000000000000000000604482015290519081900360640190fd5b50016003015190565b6120c9612668565b8273ffffffffffffffffffffffffffffffffffffffff168473ffffffffffffffffffffffffffffffffffffffff161115612101579192915b506040805160608101825273ffffffffffffffffffffffffffffffffffffffff948516815292909316602083015262ffffff169181019190915290565b600061214a8383612532565b90503373ffffffffffffffffffffffffffffffffffffffff82161461184c57600080fd5b6040805173ffffffffffffffffffffffffffffffffffffffff85811660248301528481166044830152606480830185905283518084039091018152608490920183526020820180517bffffffffffffffffffffffffffffffffffffffffffffffffffffffff167f23b872dd00000000000000000000000000000000000000000000000000000000178152925182516000948594938a169392918291908083835b6020831061224b57805182527fffffffffffffffffffffffffffffffffffffffffffffffffffffffffffffffe0909201916020918201910161220e565b6001836020036101000a0380198251168184511680821785525050505050509050019150506000604051808303816000865af19150503d80600081146122ad576040519150601f19603f3d011682016040523d82523d6000602084013e6122b2565b606091505b50915091508180156122e05750805115806122e057508080602001905160208110156122dd57600080fd5b50515b6109b857604080517f08c379a000000000000000000000000000000000000000000000000000000000815260206004820152600360248201527f5354460000000000000000000000000000000000000000000000000000000000604482015290519081900360640190fd5b60608182601f0110156123bf57604080517f08c379a000000000000000000000000000000000000000000000000000000000815260206004820152600e60248201527f736c6963655f6f766572666c6f77000000000000000000000000000000000000604482015290519081900360640190fd5b82828401101561243057604080517f08c379a000000000000000000000000000000000000000000000000000000000815260206004820152600e60248201527f736c6963655f6f766572666c6f77000000000000000000000000000000000000604482015290519081900360640190fd5b818301845110156124a257604080517f08c379a000000000000000000000000000000000000000000000000000000000815260206004820152601160248201527f736c6963655f6f75744f66426f756e6473000000000000000000000000000000604482015290519081900360640190fd5b6060821580156124c15760405191506000825260208201604052612529565b6040519150601f8416801560200281840101858101878315602002848b0101015b818310156124fa5780518352602092830192016124e2565b5050858452601f017fffffffffffffffffffffffffffffffffffffffffffffffffffffffffffffffe016604052505b50949350505050565b6000816020015173ffffffffffffffffffffffffffffffffffffffff16826000015173ffffffffffffffffffffffffffffffffffffffff161061257457600080fd5b508051602080830151604093840151845173ffffffffffffffffffffffffffffffffffffffff94851681850152939091168385015262ffffff166060808401919091528351808403820181526080840185528051908301207fff0000000000000000000000000000000000000000000000000000000000000060a085015294901b7fffffffffffffffffffffffffffffffffffffffff0000000000000000000000001660a183015260b58201939093527f7ea2da342810af3c5a9b47258f990aaac829fe1385a1398feb77d0126a85dbef60d5808301919091528251808303909101815260f5909101909152805191012090565b604080516060810182526000808252602082018190529181019190915290565b8035611a8781612f4e565b600082601f8301126126a3578081fd5b81356126b66126b182612ee2565b612ebe565b8181528460208386010111156126ca578283fd5b816020850160208301379081016020019190915292915050565b600061010082840312156104f9578081fd5b600060208284031215612707578081fd5b813561271281612f4e565b9392505050565b60008060006060848603121561272d578182fd5b833561273881612f4e565b925060208401359150604084013561274f81612f4e565b809150509250925092565b600080600080600060a08688031215612771578081fd5b853561277c81612f4e565b945060208601359350604086013561279381612f4e565b92506060860135915060808601356127aa81612f4e565b809150509295509295909350565b60008060008060008060c087890312156127d0578081fd5b86356127db81612f4e565b95506020870135945060408701359350606087013560ff811681146127fe578182fd5b9598949750929560808101359460a0909101359350915050565b6000806020838503121561282a578182fd5b823567ffffffffffffffff80821115612841578384fd5b818501915085601f830112612854578384fd5b813581811115612862578485fd5b8660208083028501011115612875578485fd5b60209290920196919550909350505050565b60008060408385031215612899578182fd5b505080516020909101519092909150565b600080600080606085870312156128bf578182fd5b8435935060208501359250604085013567ffffffffffffffff808211156128e4578384fd5b818701915087601f8301126128f7578384fd5b813581811115612905578485fd5b886020828501011115612916578485fd5b95989497505060200194505050565b600060208284031215612936578081fd5b815167ffffffffffffffff81111561294c578182fd5b8201601f8101841361295c578182fd5b805161296a6126b182612ee2565b81815285602083850101111561297e578384fd5b611899826020830160208601612f22565b6000602082840312156129a0578081fd5b813567ffffffffffffffff808211156129b7578283fd5b9083019060a082860312156129ca578283fd5b60405160a0810181811083821117156129df57fe5b6040528235828111156129f0578485fd5b6129fc87828601612693565b825250612a0b60208401612688565b602082015260408301356040820152606083013560608201526080830135608082015280935050505092915050565b60006101008284031215612a4c578081fd5b61271283836126e4565b600060208284031215612a67578081fd5b813567ffffffffffffffff811115612a7d578182fd5b820160a08185031215612712578182fd5b600060208284031215612a9f578081fd5b813567ffffffffffffffff80821115612ab6578283fd5b9083019060408286031215612ac9578283fd5b604051604081018181108382111715612ade57fe5b604052823582811115612aef578485fd5b612afb87828601612693565b82525060208301359250612b0e83612f4e565b6020810192909252509392505050565b600060208284031215612b2f578081fd5b813562ffffff81168114612712578182fd5b600060208284031215612b52578081fd5b5035919050565b60008060408385031215612b6b578182fd5b823591506020830135612b7d81612f4e565b809150509250929050565b60008060008060808587031215612b9d578182fd5b843593506020850135612baf81612f4e565b9250604085013591506060850135612bc681612f4e565b939692955090935050565b60008151808452612be9816020860160208601612f22565b601f017fffffffffffffffffffffffffffffffffffffffffffffffffffffffffffffffe0169290920160200192915050565b606093841b7fffffffffffffffffffffffffffffffffffffffff000000000000000000000000908116825260e89390931b7fffffff0000000000000000000000000000000000000000000000000000000000166014820152921b166017820152602b0190565b6000828483379101908152919050565b73ffffffffffffffffffffffffffffffffffffffff91909116815260200190565b600073ffffffffffffffffffffffffffffffffffffffff8088168352861515602084015285604084015280851660608401525060a06080830152612cf960a0830184612bd1565b979650505050505050565b6000602080830181845280855180835260408601915060408482028701019250838701855b82811015612d75577fffffffffffffffffffffffffffffffffffffffffffffffffffffffffffffffc0888603018452612d63858351612bd1565b94509285019290850190600101612d29565b5092979650505050505050565b6000602082526127126020830184612bd1565b60208082526012908201527f546f6f206d756368207265717565737465640000000000000000000000000000604082015260600190565b60208082526013908201527f546f6f206c6974746c6520726563656976656400000000000000000000000000604082015260600190565b600060208252825160406020840152612e1f6060840182612bd1565b905073ffffffffffffffffffffffffffffffffffffffff60208501511660408401528091505092915050565b90815260200190565b60008083357fffffffffffffffffffffffffffffffffffffffffffffffffffffffffffffffe1843603018112612e88578283fd5b83018035915067ffffffffffffffff821115612ea2578283fd5b602001915036819003821315612eb757600080fd5b9250929050565b60405181810167ffffffffffffffff81118282101715612eda57fe5b604052919050565b600067ffffffffffffffff821115612ef657fe5b50601f017fffffffffffffffffffffffffffffffffffffffffffffffffffffffffffffffe01660200190565b60005b83811015612f3d578181015183820152602001612f25565b838111156112165750506000910152565b73ffffffffffffffffffffffffffffffffffffffff81168114612f7057600080fd5b5056fea164736f6c6343000706000a",
  "linkReferences": {},
  "deployedLinkReferences": {}
}