{
  "_format": "hh-sol-artifact-1",
  "contractName": "TickLensTest",
  "sourceName": "contracts/test/TickLensTest.sol",
  "abi": [
    {
      "inputs": [
        {
          "internalType": "address",
          "name": "pool",
          "type": "address"
        },
        {
          "internalType": "int16",
          "name": "tickBitmapIndex",
          "type": "int16"
        }
      ],
      "name": "getGasCostOfGetPopulatedTicksInWord",
      "outputs": [
        {
          "internalType": "uint256",
          "name": "",
          "type": "uint256"
        }
      ],
      "stateMutability": "view",
      "type": "function"
    },
    {
      "inputs": [
        {
          "internalType": "address",
          "name": "pool",
          "type": "address"
        },
        {
          "internalType": "int16",
          "name": "tickBitmapIndex",
          "type": "int16"
        }
      ],
      "name": "getPopulatedTicksInWord",
      "outputs": [
        {
          "components": [
            {
              "internalType": "int24",
              "name": "tick",
              "type": "int24"
            },
            {
              "internalType": "int128",
              "name": "liquidityNet",
              "type": "int128"
            },
            {
              "internalType": "uint128",
              "name": "liquidityGross",
              "type": "uint128"
            }
          ],
          "internalType": "struct ITickLens.PopulatedTick[]",
          "name": "populatedTicks",
          "type": "tuple[]"
        }
      ],
      "stateMutability": "view",
      "type": "function"
    }
  ],
  "bytecode": "0x608060405234801561001057600080fd5b506105d7806100206000396000f3fe608060405234801561001057600080fd5b50600436106100365760003560e01c8063351fb4781461003b578063f0c2e7bc14610064575b600080fd5b61004e6100493660046103e1565b610084565b60405161005b919061050f565b60405180910390f35b6100776100723660046103e1565b610372565b60405161005b919061059c565b6040517f5339c296000000000000000000000000000000000000000000000000000000008152606090603d9060009073ffffffffffffffffffffffffffffffffffffffff861690635339c296906100df908790600401610580565b60206040518083038186803b1580156100f757600080fd5b505afa15801561010b573d6000803e3d6000fd5b505050506040513d601f19601f8201168201806040525081019061012f91906104f7565b90506000805b610100811015610159576001811b831615610151576001909101905b600101610135565b5060008673ffffffffffffffffffffffffffffffffffffffff1663d0c93a7c6040518163ffffffff1660e01b815260040160206040518083038186803b1580156101a257600080fd5b505afa1580156101b6573d6000803e3d6000fd5b505050506040513d601f19601f820116820180604052508101906101da919061041f565b90508167ffffffffffffffff811180156101f357600080fd5b5060405190808252806020026020018201604052801561022d57816020015b61021a61038d565b8152602001906001900390816102125790505b50945060005b610100811015610367576001811b84161561035f576040517ff30dba93000000000000000000000000000000000000000000000000000000008152600188900b60020b60081b8201830290600090819073ffffffffffffffffffffffffffffffffffffffff8c169063f30dba93906102af90869060040161058e565b6101006040518083038186803b1580156102c857600080fd5b505afa1580156102dc573d6000803e3d6000fd5b505050506040513d601f19601f820116820180604052508101906103009190610447565b5050505050509150915060405180606001604052808460020b815260200182600f0b8152602001836fffffffffffffffffffffffffffffffff168152508987600190039750878151811061035057fe5b60200260200101819052505050505b600101610233565b505050505092915050565b6000805a90506103828484610084565b505a90039392505050565b604080516060810182526000808252602082018190529181019190915290565b805180151581146103bd57600080fd5b919050565b80516103bd816105a5565b805163ffffffff811681146103bd57600080fd5b600080604083850312156103f3578182fd5b82356103fe816105a5565b91506020830135600181900b8114610414578182fd5b809150509250929050565b600060208284031215610430578081fd5b81518060020b8114610440578182fd5b9392505050565b600080600080600080600080610100898b031215610463578384fd5b88516fffffffffffffffffffffffffffffffff81168114610482578485fd5b80985050602089015180600f0b8114610499578485fd5b80975050604089015195506060890151945060808901518060060b81146104be578485fd5b93506104cc60a08a016103c2565b92506104da60c08a016103cd565b91506104e860e08a016103ad565b90509295985092959890939650565b600060208284031215610508578081fd5b5051919050565b602080825282518282018190526000919060409081850190868401855b82811015610573578151805160020b855286810151600f0b878601528501516fffffffffffffffffffffffffffffffff16858501526060909301929085019060010161052c565b5091979650505050505050565b60019190910b815260200190565b60029190910b815260200190565b90815260200190565b73ffffffffffffffffffffffffffffffffffffffff811681146105c757600080fd5b5056fea164736f6c6343000706000a",
  "linkReferences": {},
  "deployedLinkReferences": {}
}