{
  "_format": "hh-sol-artifact-1",
  "contractName": "NFTDescriptor",
  "sourceName": "contracts/libraries/NFTDescriptor.sol",
  "abi": [
    {
      "inputs": [
        {
          "components": [
            {
              "internalType": "uint256",
              "name": "tokenId",
              "type": "uint256"
            },
            {
              "internalType": "address",
              "name": "quoteTokenAddress",
              "type": "address"
            },
            {
              "internalType": "address",
              "name": "baseTokenAddress",
              "type": "address"
            },
            {
              "internalType": "string",
              "name": "quoteTokenSymbol",
              "type": "string"
            },
            {
              "internalType": "string",
              "name": "baseTokenSymbol",
              "type": "string"
            },
            {
              "internalType": "uint8",
              "name": "quoteTokenDecimals",
              "type": "uint8"
            },
            {
              "internalType": "uint8",
              "name": "baseTokenDecimals",
              "type": "uint8"
            },
            {
              "internalType": "bool",
              "name": "flipRatio",
              "type": "bool"
            },
            {
              "internalType": "int24",
              "name": "tickLower",
              "type": "int24"
            },
            {
              "internalType": "int24",
              "name": "tickUpper",
              "type": "int24"
            },
            {
              "internalType": "int24",
              "name": "tickCurrent",
              "type": "int24"
            },
            {
              "internalType": "int24",
              "name": "tickSpacing",
              "type": "int24"
            },
            {
              "internalType": "uint24",
              "name": "fee",
              "type": "uint24"
            },
            {
              "internalType": "address",
              "name": "poolAddress",
              "type": "address"
            }
          ],
          "internalType": "struct NFTDescriptor.ConstructTokenURIParams",
          "name": "params",
          "type": "tuple"
        }
      ],
      "name": "constructTokenURI",
      "outputs": [
        {
          "internalType": "string",
          "name": "",
          "type": "string"
        }
      ],
      "stateMutability": "pure",
      "type": "function"
    }
  ],
  "bytecode": "0x615fe4610026600b82828239805160001a60731461001957fe5b30600052607381538281f3fe73000000000000000000000000000000000000000030146080604052600436106100355760003560e01c8063c49917d71461003a575b600080fd5b61004d610048366004613f0f565b610063565b60405161005a9190614651565b60405180910390f35b60606000603d905060006100848461007f866101800151610177565b6103d8565b905060006100b86100988660600151610493565b6100a58760800151610493565b6100b3886101a0015161064b565b610661565b905060006101066100cc8760000151610693565b6100d98860800151610493565b6100e6896020015161064b565b6100f38a6040015161064b565b6101018b6101800151610177565b61076e565b9050600061011b610116886107a4565b6109df565b905061014b848484846040516020016101379493929190614180565b6040516020818303038152906040526109df565b60405160200161015b91906143bf565b604051602081830303815290604052955050505050505b919050565b606062ffffff82166101bd575060408051808201909152600281527f30250000000000000000000000000000000000000000000000000000000000006020820152610172565b816000805b62ffffff83161561020d5760ff8116156101de576001016101f7565b600a62ffffff84160662ffffff166000146101f7576001015b600190910190600a62ffffff84160492506101c2565b610215613e09565b60006005841061030a57600060046102308660ff8716610b64565b101561023d576001610240565b60005b60ff90811691506102549085166001610b64565b61025f866005610b64565b1061028b5761028661027560ff86166001610b64565b610280876005610b64565b90610b64565b61028e565b60005b60ff8516608085018190529092506102ad906001906102809085610bc1565b60ff90811660a085015260808401516102d49183916102ce91166001610b64565b90610bc1565b60ff90811660408501526102fc9082906102ce906102f59088166001610bc1565b8590610bc1565b60ff1660208401525061037a565b610315600585610b64565b60026080840181905290915061033390600190610280908490610bc1565b60ff90811660a08401526103559061034e9085166002610bc1565b8290610bc1565b60ff166020830181905261036a906002610b64565b60ff166040830152600160c08301525b61039961038a8560ff8616610b64565b62ffffff891690600a0a610c1b565b8252600160e0830152600484116103b15760006103bc565b6103bc846004610b64565b60ff1660608301526103cd82610c82565b979650505050505050565b6060816103e88460600151610493565b6103f58560800151610493565b61042e8660e001511561040d57866101200151610414565b8661010001515b8761016001518860c001518960a001518a60e00151610eae565b6104678760e00151156104465787610100015161044d565b8761012001515b8861016001518960c001518a60a001518b60e00151610eae565b60405160200161047b959493929190614404565b60405160208183030381529060405290505b92915050565b6060816000805b82518160ff1610156104f757828160ff16815181106104b557fe5b6020910101517fff0000000000000000000000000000000000000000000000000000000000000016601160f91b14156104ef576001909101905b60010161049a565b5060ff8116156106435760008160ff1683510167ffffffffffffffff8111801561052057600080fd5b506040519080825280601f01601f19166020018201604052801561054b576020820181803683370190505b5090506000805b84518160ff16101561063657848160ff168151811061056d57fe5b6020910101517fff0000000000000000000000000000000000000000000000000000000000000016601160f91b14156105eb577f5c000000000000000000000000000000000000000000000000000000000000008383806001019450815181106105d357fe5b60200101906001600160f81b031916908160001a9053505b848160ff16815181106105fa57fe5b602001015160f81c60f81b83838060010194508151811061061757fe5b60200101906001600160f81b031916908160001a905350600101610552565b5081945050505050610172565b509192915050565b606061048d6001600160a01b0383166014610fd8565b60608383838660405160200161067a9493929190614505565b60405160208183030381529060405290505b9392505050565b6060816106b857506040805180820190915260018152600360fc1b6020820152610172565b8160005b81156106d057600101600a820491506106bc565b60008167ffffffffffffffff811180156106e957600080fd5b506040519080825280601f01601f191660200182016040528015610714576020820181803683370190505b50859350905060001982015b831561076557600a840660300160f81b8282806001900393508151811061074357fe5b60200101906001600160f81b031916908160001a905350600a84049350610720565b50949350505050565b606083858484896040516020016107899594939291906142a7565b60405160208183030381529060405290505b95945050505050565b60606000604051806102a001604052806107c1856020015161064b565b81526020016107d3856040015161064b565b8152602001846101a001516001600160a01b03168152602001846060015181526020018460800151815260200161080e856101800151610177565b815260200184610100015160020b815260200184610120015160020b815260200184610160015160020b8152602001610857856101000151866101200151876101400151611160565b60000b81526020018460000151815260200161088185602001516001600160a01b03166088611197565b815260200161089e85604001516001600160a01b03166088611197565b81526020016108bb85602001516001600160a01b03166000611197565b81526020016108d885604001516001600160a01b03166000611197565b815260200161090b6108fd86602001516001600160a01b0316601088600001516111a6565b600060ff60106101126111c6565b815260200161093e61093086604001516001600160a01b0316601088600001516111a6565b600060ff60646101e46111c6565b81526020016109636108fd86602001516001600160a01b0316602088600001516111a6565b815260200161098861093086604001516001600160a01b0316602088600001516111a6565b81526020016109ad6108fd86602001516001600160a01b0316603088600001516111a6565b81526020016109d261093086604001516001600160a01b0316603088600001516111a6565b9052905061068c8161120e565b6060815160001415610a005750604080516020810190915260008152610172565b600060405180606001604052806040815260200161527260409139905060006003845160020181610a2d57fe5b04600402905060008160200167ffffffffffffffff81118015610a4f57600080fd5b506040519080825280601f01601f191660200182016040528015610a7a576020820181803683370190505b509050818152600183018586518101602084015b81831015610ae85760039283018051603f601282901c811687015160f890811b8552600c83901c8216880151811b6001860152600683901c8216880151811b60028601529116860151901b93820193909352600401610a8e565b600389510660018114610b025760028114610b2e57610b56565b7f3d3d000000000000000000000000000000000000000000000000000000000000600119830152610b56565b7f3d000000000000000000000000000000000000000000000000000000000000006000198301525b509398975050505050505050565b600082821115610bbb576040805162461bcd60e51b815260206004820152601e60248201527f536166654d6174683a207375627472616374696f6e206f766572666c6f770000604482015290519081900360640190fd5b50900390565b60008282018381101561068c576040805162461bcd60e51b815260206004820152601b60248201527f536166654d6174683a206164646974696f6e206f766572666c6f770000000000604482015290519081900360640190fd5b6000808211610c71576040805162461bcd60e51b815260206004820152601a60248201527f536166654d6174683a206469766973696f6e206279207a65726f000000000000604482015290519081900360640190fd5b818381610c7a57fe5b049392505050565b60606000826020015160ff1667ffffffffffffffff81118015610ca457600080fd5b506040519080825280601f01601f191660200182016040528015610ccf576020820181803683370190505b5090508260e0015115610d25577f250000000000000000000000000000000000000000000000000000000000000081600183510381518110610d0d57fe5b60200101906001600160f81b031916908160001a9053505b8260c0015115610d8257600360fc1b81600081518110610d4157fe5b60200101906001600160f81b031916908160001a905350601760f91b81600181518110610d6a57fe5b60200101906001600160f81b031916908160001a9053505b608083015160ff165b60a0840151610d9e9060ff166001610bc1565b811015610dd557603060f81b828281518110610db657fe5b60200101906001600160f81b031916908160001a905350600101610d8b565b505b82511561048d576000836060015160ff16118015610e025750826060015160ff16836040015160ff16145b15610e455760408301805160ff600019820181169092528251601760f91b92849216908110610e2d57fe5b60200101906001600160f81b031916908160001a9053505b8251610e5790603090600a9006610bc1565b60f81b818460400180518091906001900360ff1660ff1681525060ff1681518110610e7e57fe5b60200101906001600160f81b031916908160001a905350600a8360000181815181610ea557fe5b04905250610dd7565b606084600281900b620d89e71981610ec257fe5b050260020b8660020b1415610f1c578115610ef8576040518060400160405280600381526020016209a82b60eb1b815250610f15565b6040518060400160405280600381526020016226a4a760e91b8152505b905061079b565b84600281900b620d89e881610f2d57fe5b050260020b8660020b1415610f83578115610f63576040518060400160405280600381526020016226a4a760e91b815250610f15565b5060408051808201909152600381526209a82b60eb1b602082015261079b565b6000610f8e8761149d565b90508215610fc557610fc278010000000000000000000000000000000000000000000000006001600160a01b038316610c1b565b90505b610fd08186866117eb565b91505061079b565b606060008260020260020167ffffffffffffffff81118015610ff957600080fd5b506040519080825280601f01601f191660200182016040528015611024576020820181803683370190505b509050600360fc1b8160008151811061103957fe5b60200101906001600160f81b031916908160001a9053507f78000000000000000000000000000000000000000000000000000000000000008160018151811061107e57fe5b60200101906001600160f81b031916908160001a905350600160028402015b600181111561110c577f303132333435363738396162636465660000000000000000000000000000000085600f16601081106110d557fe5b1a60f81b8282815181106110e557fe5b60200101906001600160f81b031916908160001a90535060049490941c936000190161109d565b50831561068c576040805162461bcd60e51b815260206004820181905260248201527f537472696e67733a20686578206c656e67746820696e73756666696369656e74604482015290519081900360640190fd5b60008360020b8260020b1215611179575060001961068c565b8260020b8260020b131561118f5750600161068c565b50600061068c565b606061068c83831c60036119b9565b600060ff826111b58686611a80565b02816111bd57fe5b06949350505050565b60606112046111ff846102ce6111dc888a610b64565b6111f96111e9888a610b64565b6111f38d8d610b64565b90611a87565b90610c1b565b610693565b9695505050505050565b606061121982611ae0565b6112358360000151846020015185606001518660800151612194565b61124c846060015185608001518660a001516124bf565b61126a8560c001518660e0015187610100015188610120015161260f565b61128a61127b876101400151610693565b8760c001518860e00151612962565b61129d8761014001518860400151612d93565b6040516020018087805190602001908083835b602083106112cf5780518252601f1990920191602091820191016112b0565b51815160209384036101000a600019018019909216911617905289519190930192890191508083835b602083106113175780518252601f1990920191602091820191016112f8565b51815160209384036101000a600019018019909216911617905288519190930192880191508083835b6020831061135f5780518252601f199092019160209182019101611340565b51815160209384036101000a600019018019909216911617905287519190930192870191508083835b602083106113a75780518252601f199092019160209182019101611388565b51815160209384036101000a600019018019909216911617905286519190930192860191508083835b602083106113ef5780518252601f1990920191602091820191016113d0565b51815160209384036101000a600019018019909216911617905285519190930192850191508083835b602083106114375780518252601f199092019160209182019101611418565b5181516020939093036101000a60001901801990911692169190911790527f3c2f7376673e000000000000000000000000000000000000000000000000000092019182525060408051808303601919018152600690920190529998505050505050505050565b60008060008360020b126114b4578260020b6114bc565b8260020b6000035b9050620d89e8811115611516576040805162461bcd60e51b815260206004820152600160248201527f5400000000000000000000000000000000000000000000000000000000000000604482015290519081900360640190fd5b60006001821661152a57600160801b61153c565b6ffffcb933bd6fad37aa2d162d1a5940015b70ffffffffffffffffffffffffffffffffff1690506002821615611570576ffff97272373d413259a46990580e213a0260801c5b600482161561158f576ffff2e50f5f656932ef12357cf3c7fdcc0260801c5b60088216156115ae576fffe5caca7e10e4e61c3624eaa0941cd00260801c5b60108216156115cd576fffcb9843d60f6159c9db58835c9266440260801c5b60208216156115ec576fff973b41fa98c081472e6896dfb254c00260801c5b604082161561160b576fff2ea16466c96a3843ec78b326b528610260801c5b608082161561162a576ffe5dee046a99a2a811c461f1969c30530260801c5b61010082161561164a576ffcbe86c7900a88aedcffc83b479aa3a40260801c5b61020082161561166a576ff987a7253ac413176f2b074cf7815e540260801c5b61040082161561168a576ff3392b0822b70005940c7a398e4b70f30260801c5b6108008216156116aa576fe7159475a2c29b7443b29c7fa6e889d90260801c5b6110008216156116ca576fd097f3bdfd2022b8845ad8f792aa58250260801c5b6120008216156116ea576fa9f746462d870fdf8a65dc1f90e061e50260801c5b61400082161561170a576f70d869a156d2a1b890bb3df62baf32f70260801c5b61800082161561172a576f31be135f97d08fd981231505542fcfa60260801c5b6201000082161561174b576f09aa508b5b7a84e1c677de54f3e99bc90260801c5b6202000082161561176b576e5d6af8dedb81196699c329225ee6040260801c5b6204000082161561178a576d2216e584f5fa1ea926041bedfe980260801c5b620800008216156117a7576b048a170391f7dc42444e8fa20260801c5b60008460020b13156117c25780600019816117be57fe5b0490505b6401000000008106156117d65760016117d9565b60005b60ff16602082901c0192505050919050565b606060006117fa858585612e0b565b90506000611812828368010000000000000000612f0d565b90506c01000000000000000000000000821080156118535761184c8272047bf19673df52e37f2410011d100000000000600160801b612f0d565b9150611868565b61186582620186a0600160801b612f0d565b91505b8160005b811561188057600101600a8204915061186c565b600019016000806118918684612fbc565b9150915080156118a2576001909201915b6118aa613e09565b8515611917576118c96118c1602b60ff8716610b64565b600790610bc1565b60ff9081166020830152600260808301526118ef906001906102ce90602b908816610b64565b60ff90811660a0830152602082015161190a91166001610b64565b60ff16604082015261198e565b60098460ff16106119605761193060ff85166004610b64565b60ff16602082018190526005608083015261194c906001610b64565b60ff1660a08201526004604082015261198e565b60066020820152600560408201819052611985906001906102ce9060ff881690610b64565b60ff1660608201525b82815285151560c0820152600060e08201526119a981610c82565b9c9b505050505050505050505050565b606060008260020267ffffffffffffffff811180156119d757600080fd5b506040519080825280601f01601f191660200182016040528015611a02576020820181803683370190505b5080519091505b8015611a78577f303132333435363738396162636465660000000000000000000000000000000085600f1660108110611a3e57fe5b1a60f81b826001830381518110611a5157fe5b60200101906001600160f81b031916908160001a90535060049490941c9360001901611a09565b509392505050565b1c60ff1690565b600082611a965750600061048d565b82820282848281611aa357fe5b041461068c5760405162461bcd60e51b81526004018080602001828103825260218152602001806154916021913960400191505060405180910390fd5b6060611b75826101600151604051602001808061504b6081913960810182805190602001908083835b60208310611b285780518252601f199092019160209182019101611b09565b6001836020036101000a038019825116818451168082178552505050505050905001806813979f1e17b9bb339f60b91b8152506009019150506040516020818303038152906040526109df565b611ce1836101e001518461020001518561018001516040516020018080614b886063913960630184805190602001908083835b60208310611bc75780518252601f199092019160209182019101611ba8565b51815160209384036101000a600019018019909216911617905265272063793d2760d01b919093019081528551600690910192860191508083835b60208310611c215780518252601f199092019160209182019101611c02565b51815160209384036101000a60001901801990921691161790527f2720723d273132307078272066696c6c3d272300000000000000000000000000919093019081528451601390910192850191508083835b60208310611c925780518252601f199092019160209182019101611c73565b6001836020036101000a038019825116818451168082178552505050505050905001806813979f1e17b9bb339f60b91b81525060090193505050506040516020818303038152906040526109df565b611d32846102200151856102400151866101a001516040516020018080614b8860639139606301848051906020019080838360208310611bc75780518252601f199092019160209182019101611ba8565b611e51856102600151866102800151876101c001516040516020018080614b886063913960630184805190602001908083835b60208310611d845780518252601f199092019160209182019101611d65565b51815160209384036101000a600019018019909216911617905265272063793d2760d01b919093019081528551600690910192860191508083835b60208310611dde5780518252601f199092019160209182019101611dbf565b51815160001960209485036101000a019081169019919091161790527f2720723d273130307078272066696c6c3d272300000000000000000000000000939091019283528451601390930192908501915080838360208310611c925780518252601f199092019160209182019101611c73565b6101608601516040516020018060566149038239605601602c6152b282397f3c646566733e0000000000000000000000000000000000000000000000000000602c820152603201604b6150008239604b0186805190602001908083835b60208310611ecd5780518252601f199092019160209182019101611eae565b6001836020036101000a03801982511681845116808217855250505050505090500180615b38603e9139603e0185805190602001908083835b60208310611f255780518252601f199092019160209182019101611f06565b6001836020036101000a038019825116818451168082178552505050505050905001806150cc603e9139603e0184805190602001908083835b60208310611f7d5780518252601f199092019160209182019101611f5e565b5181516020939093036101000a60001901801990911692169190911790527f22202f3e00000000000000000000000000000000000000000000000000000000920191825250600401603b6147fb8239603b0183805190602001908083835b60208310611ffa5780518252601f199092019160209182019101611fdb565b6001836020036101000a03801982511681845116808217855250505050505090500180614c4860999139609901607f6156e98239607f016088615ab082396088016041614ce18239604101605d615c708239605d01607261579582396072016049614764823960490160be614f42823960be016071614a148239607101607561562c82396075016066614d22823960660160a46152de823960a4016085615b7682397f3c6720636c69702d706174683d2275726c2823636f726e65727329223e00000060858201527f3c726563742066696c6c3d22000000000000000000000000000000000000000060a2820152825160ae9091019060208401908083835b602083106121185780518252601f1990920191602091820191016120f9565b6001836020036101000a03801982511681845116808217855250505050505090500180614d8860319139603101604e6147ad8239604e01605d614beb8239605d0160416152318239604101605261510a82396052016075615bfb8239607501955050505050506040516020818303038152906040529050919050565b60608382858488878a896040516020018080615d5360259139602501607d614ec58239607d0189805190602001908083835b602083106121e55780518252601f1990920191602091820191016121c6565b51815160209384036101000a600019018019909216911617905264010714051160dd1b919093019081528a516005909101928b0191508083835b6020831061223e5780518252601f19909201916020918201910161221f565b6001836020036101000a03801982511681845116808217855250505050505090500180614db9607991396079016086615ccd823960860187805190602001908083835b602083106122a05780518252601f199092019160209182019101612281565b51815160209384036101000a600019018019909216911617905264010714051160dd1b919093019081528851600590910192890191508083835b602083106122f95780518252601f1990920191602091820191016122da565b6001836020036101000a0380198251168184511680821785525050505050509050018061498f60859139608501607b61591e8239607b0185805190602001908083835b6020831061235b5780518252601f19909201916020918201910161233c565b51815160209384036101000a600019018019909216911617905264010714051160dd1b919093019081528651600590910192870191508083835b602083106123b45780518252601f199092019160209182019101612395565b6001836020036101000a03801982511681845116808217855250505050505090500180614ad9605d9139605d0160a3615589823960a30183805190602001908083835b602083106124165780518252601f1990920191602091820191016123f7565b51815160209384036101000a600019018019909216911617905264010714051160dd1b919093019081528451600590910192850191508083835b6020831061246f5780518252601f199092019160209182019101612450565b6001836020036101000a038019825116818451168082178552505050505050905001806146d9608b9139608b01985050505050505050506040516020818303038152906040529050949350505050565b6060838383604051602001808061483660cd913960cd0184805190602001908083835b602083106125015780518252601f1990920191602091820191016124e2565b6001836020036101000a03801982511681845116808217855250505050505090500180602f60f81b81525060010183805190602001908083835b6020831061255a5780518252601f19909201916020918201910161253b565b6001836020036101000a03801982511681845116808217855250505050505090500180615efc6077913960770182805190602001908083835b602083106125b25780518252601f199092019160209182019101612593565b5181516020939093036101000a60001901801990911692169190911790526a1e17ba32bc3a1f1e17b39f60a91b920191825250600b016073615d9c8239607301935050505060405160208183030381529060405290509392505050565b606060008260000b6001146126a1578260000b60001914612665576040518060400160405280600581526020017f236e6f6e6500000000000000000000000000000000000000000000000000000081525061269c565b6040518060400160405280600a81526020017f23666164652d646f776e000000000000000000000000000000000000000000008152505b6126d8565b6040518060400160405280600881526020017f23666164652d75700000000000000000000000000000000000000000000000008152505b905060006126e787878761302d565b9050818183836126f68861327b565b60405160200180807f3c67206d61736b3d2275726c2800000000000000000000000000000000000000815250600d0186805190602001908083835b602083106127505780518252601f199092019160209182019101612731565b5181516020939093036101000a600019018019909116921691909117905261149160f11b9201918252506002016077615382823960770185805190602001908083835b602083106127b25780518252601f199092019160209182019101612793565b6001836020036101000a03801982511681845116808217855250505050505090500180614a8560549139605401807f3c2f673e3c67206d61736b3d2275726c2800000000000000000000000000000081525060110184805190602001908083835b602083106128325780518252601f199092019160209182019101612813565b5181516020939093036101000a600019018019909116921691909117905261149160f11b92019182525060020160296153f98239602901604561544c8239604501807f3c7061746820643d22000000000000000000000000000000000000000000000081525060090183805190602001908083835b602083106128c65780518252601f1990920191602091820191016128a7565b6001836020036101000a038019825116818451168082178552505050505050905001806156a16048913960480182805190602001908083835b6020831061291e5780518252601f1990920191602091820191016128ff565b6001836020036101000a0380198251168184511680821785525050505050509050019550505050505060405160208183030381529060405292505050949350505050565b6060600061296f8461374f565b9050600061297c8461374f565b865183518251929350600490910191600a918201910160008061299f8a8a613859565b915091506129b285600401600702610693565b8b6129c286600401600702610693565b896129d287600401600702610693565b8a87876040516020018080615768602d9139602d01806c1e3932b1ba103bb4b23a341e9160991b815250600d0189805190602001908083835b60208310612a2a5780518252601f199092019160209182019101612a0b565b6001836020036101000a0380198251168184511680821785525050505050509050018061515c603d9139603d01608d615e0f8239608d0188805190602001908083835b60208310612a8c5780518252601f199092019160209182019101612a6d565b5181516020939093036101000a60001901801990911692169190911790526a1e17ba32bc3a1f1e17b39f60a91b920191825250600b01602d615fab8239602d01806c1e3932b1ba103bb4b23a341e9160991b815250600d0187805190602001908083835b60208310612b0f5780518252601f199092019160209182019101612af0565b6001836020036101000a0380198251168184511680821785525050505050509050018061515c603d9139603d016093614e32823960930186805190602001908083835b60208310612b715780518252601f199092019160209182019101612b52565b5181516020939093036101000a60001901801990911692169190911790526a1e17ba32bc3a1f1e17b39f60a91b920191825250600b01602d614b368239602d01806c1e3932b1ba103bb4b23a341e9160991b815250600d0185805190602001908083835b60208310612bf45780518252601f199092019160209182019101612bd5565b6001836020036101000a0380198251168184511680821785525050505050509050018061515c603d9139603d016093615999823960930184805190602001908083835b60208310612c565780518252601f199092019160209182019101612c37565b6001836020036101000a03801982511681845116808217855250505050505090500180615f73603891396038016060615e9c8239606001606461552582396064016025614b63823960250183805190602001908083835b60208310612ccc5780518252601f199092019160209182019101612cad565b51815160209384036101000a60001901801990921691161790527f70782c2000000000000000000000000000000000000000000000000000000000919093019081528451600490910192850191508083835b60208310612d3d5780518252601f199092019160209182019101612d1e565b6001836020036101000a0380198251168184511680821785525050505050509050018061495960369139603601985050505050505050506040516020818303038152906040529750505050505050509392505050565b6060612d9f8383613c8a565b15612df55760405160200180608d6158918239608d0160736154b2823960730160716151c08239607101608a6158078239608a016084615a2c82396084019050604051602081830303815290604052905061048d565b5060408051602081019091526000815292915050565b600080612e26612e2160ff868116908616613ced565b613d52565b9050600081118015612e39575060128111155b15612efa578260ff168460ff161115612ea357612e6d612e5a826002610c1b565b6001600160a01b03871690600a0a611a87565b91506002810660011415612e9e57612e9b827003298b075b4b6a5240945790619b37fd4a600160801b612f0d565b91505b612ef5565b612ec4612eb1826002610c1b565b6001600160a01b03871690600a0a610c1b565b91506002810660011415612ef557612ef282600160801b7003298b075b4b6a5240945790619b37fd4a612f0d565b91505b611a78565b50506001600160a01b0390921692915050565b6000808060001985870986860292508281109083900303905080612f435760008411612f3857600080fd5b50829004905061068c565b808411612f4f57600080fd5b6000848688096000868103871696879004966002600389028118808a02820302808a02820302808a02820302808a02820302808a02820302808a02909103029181900381900460010186841190950394909402919094039290920491909117919091029150509392505050565b600080600060058460ff161115612fe457612fe18560ff600419870116600a0a610c1b565b94505b60006004600a8706119050612ffa86600a610c1b565b95508015613009578560010195505b85620186a0141561301f57600a86049550600191505b5084925090505b9250929050565b606060008260020b85850360020b8161304257fe5b05905060048160020b1361308d576040518060400160405280601a81526020017f4d312031433431203431203130352031303520313435203134350000000000008152509150611a78565b60088160020b136130d5576040518060400160405280601981526020017f4d312031433333203439203937203131332031343520313435000000000000008152509150611a78565b60108160020b1361311d576040518060400160405280601981526020017f4d312031433333203537203839203131332031343520313435000000000000008152509150611a78565b60208160020b13613165576040518060400160405280601981526020017f4d312031433235203635203831203132312031343520313435000000000000008152509150611a78565b60408160020b136131ad576040518060400160405280601981526020017f4d312031433137203733203733203132392031343520313435000000000000008152509150611a78565b60808160020b136131f5576040518060400160405280601881526020017f4d312031433920383120363520313337203134352031343500000000000000008152509150611a78565b6101008160020b1361323e576040518060400160405280601a81526020017f4d31203143312038392035372e352031343520313435203134350000000000008152509150611a78565b505060408051808201909152601881527f4d3120314331203937203439203134352031343520313435000000000000000060208201529392505050565b604080518082018252600281527f37330000000000000000000000000000000000000000000000000000000000006020808301919091528251808401845260038082527f313930000000000000000000000000000000000000000000000000000000000082840152845180860186528181527f32313700000000000000000000000000000000000000000000000000000000008185015285518087019096529085527f3333340000000000000000000000000000000000000000000000000000000000928501929092526060939091906001600087900b148061336257508560000b600019145b15613559578560000b60001914613379578161337b565b835b8660000b6000191461338d578161338f565b835b8760000b600019146133a157836133a3565b855b8860000b600019146133b557836133b7565b855b60405160200180806b1e31b4b931b6329031bc1e9160a11b815250600c0185805190602001908083835b602083106134005780518252601f1990920191602091820191016133e1565b51815160209384036101000a600019018019909216911617905267383c111031bc9e9160c11b919093019081528651600890910192870191508083835b6020831061345c5780518252601f19909201916020918201910161343d565b6001836020036101000a038019825116818451168082178552505050505050905001806151996027913960270183805190602001908083835b602083106134b45780518252601f199092019160209182019101613495565b51815160209384036101000a600019018019909216911617905267383c111031bc9e9160c11b919093019081528451600890910192850191508083835b602083106135105780518252601f1990920191602091820191016134f1565b6001836020036101000a03801982511681845116808217855250505050505090500180615422602a9139602a019450505050506040516020818303038152906040529450613746565b8383838360405160200180806b1e31b4b931b6329031bc1e9160a11b815250600c0185805190602001908083835b602083106135a65780518252601f199092019160209182019101613587565b51815160209384036101000a600019018019909216911617905267383c111031bc9e9160c11b919093019081528651600890910192870191508083835b602083106136025780518252601f1990920191602091820191016135e3565b51815160209384036101000a60001901801990921691161790527f70782220723d22347078222066696c6c3d22776869746522202f3e0000000000919093019081526b1e31b4b931b6329031bc1e9160a11b601b8201528551602790910192860191508083835b602083106136885780518252601f199092019160209182019101613669565b51815160209384036101000a600019018019909216911617905267383c111031bc9e9160c11b919093019081528451600890910192850191508083835b602083106136e45780518252601f1990920191602091820191016136c5565b6001836020036101000a038019825116818451168082178552505050505050905001807f70782220723d22347078222066696c6c3d22776869746522202f3e0000000000815250601b0194505050505060405160208183030381529060405294505b50505050919050565b6060600060405180602001604052806000815250905060008360020b12156137955782600019029250604051806040016040528060018152602001602d60f81b81525090505b806137a28460020b610693565b6040516020018083805190602001908083835b602083106137d45780518252601f1990920191602091820191016137b5565b51815160209384036101000a600019018019909216911617905285519190930192850191508083835b6020831061381c5780518252601f1990920191602091820191016137fd565b6001836020036101000a03801982511681845116808217855250505050505090500192505050604051602081830303815290604052915050919050565b60608060006002858501810b0590506201e847198160020b12156138d157604051806040016040528060018152602001600760fb1b8152506040518060400160405280600181526020017f37000000000000000000000000000000000000000000000000000000000000008152509250925050613026565b620124f7198160020b121561393a57604051806040016040528060018152602001600760fb1b8152506040518060400160405280600481526020017f31302e35000000000000000000000000000000000000000000000000000000008152509250925050613026565b6161a7198160020b12156139a257604051806040016040528060018152602001600760fb1b8152506040518060400160405280600581526020017f31342e32350000000000000000000000000000000000000000000000000000008152509250925050613026565b611387198160020b1215613a0b576040518060400160405280600281526020017f313000000000000000000000000000000000000000000000000000000000000081525060405180604001604052806002815260200161062760f31b8152509250925050613026565b60008160020b1215613a72576040518060400160405280600281526020017f313100000000000000000000000000000000000000000000000000000000000081525060405180604001604052806002815260200161323160f01b8152509250925050613026565b6113888160020b1215613af5576040518060400160405280600281526020017f31330000000000000000000000000000000000000000000000000000000000008152506040518060400160405280600281526020017f32330000000000000000000000000000000000000000000000000000000000008152509250925050613026565b6161a88160020b1215613b78576040518060400160405280600281526020017f31350000000000000000000000000000000000000000000000000000000000008152506040518060400160405280600281526020017f32350000000000000000000000000000000000000000000000000000000000008152509250925050613026565b620124f88160020b1215613be15760405180604001604052806002815260200161062760f31b8152506040518060400160405280600281526020017f32360000000000000000000000000000000000000000000000000000000000008152509250925050613026565b6201e8488160020b1215613c2f5760405180604001604052806002815260200161323160f01b81525060405180604001604052806002815260200161323760f01b8152509250925050613026565b6040518060400160405280600281526020017f323400000000000000000000000000000000000000000000000000000000000081525060405180604001604052806002815260200161323760f01b8152509250925050613026565b6040805160208082018590526bffffffffffffffffffffffff19606085901b16828401528251603481840301815260549092019092528051910120600090613cd184613d69565b60020260010160ff1660001981613ce457fe5b04119392505050565b6000818303818312801590613d025750838113155b80613d175750600083128015613d1757508381135b61068c5760405162461bcd60e51b8152600401808060200182810382526024815260200180615d786024913960400191505060405180910390fd5b600080821215613d65578160000361048d565b5090565b6000808211613d7757600080fd5b600160801b8210613d8a57608091821c91015b680100000000000000008210613da257604091821c91015b6401000000008210613db657602091821c91015b620100008210613dc857601091821c91015b6101008210613dd957600891821c91015b60108210613de957600491821c91015b60048210613df957600291821c91015b6002821061017257600101919050565b6040805161010081018252600080825260208201819052918101829052606081018290526080810182905260a0810182905260c0810182905260e081019190915290565b80356001600160a01b038116811461017257600080fd5b8035801515811461017257600080fd5b8035600281900b811461017257600080fd5b600082601f830112613e96578081fd5b813567ffffffffffffffff811115613eaa57fe5b613ebd601f8201601f1916602001614684565b818152846020838601011115613ed1578283fd5b816020850160208301379081016020019190915292915050565b803562ffffff8116811461017257600080fd5b803560ff8116811461017257600080fd5b600060208284031215613f20578081fd5b813567ffffffffffffffff80821115613f37578283fd5b81840191506101c0808387031215613f4d578384fd5b613f5681614684565b905082358152613f6860208401613e4d565b6020820152613f7960408401613e4d565b6040820152606083013582811115613f8f578485fd5b613f9b87828601613e86565b606083015250608083013582811115613fb2578485fd5b613fbe87828601613e86565b608083015250613fd060a08401613efe565b60a0820152613fe160c08401613efe565b60c0820152613ff260e08401613e64565b60e08201526101009150614007828401613e74565b82820152610120915061401b828401613e74565b82820152610140915061402f828401613e74565b828201526101609150614043828401613e74565b828201526101809150614057828401613eeb565b828201526101a0915061406b828401613e4d565b91810191909152949350505050565b6000815161408c8185602086016146a8565b9290920192915050565b7fe29aa0efb88f20444953434c41494d45523a204475652064696c6967656e636581527f20697320696d7065726174697665207768656e20617373657373696e6720746860208201527f6973204e46542e204d616b65207375726520746f6b656e20616464726573736560408201527f73206d617463682074686520657870656374656420746f6b656e732c2061732060608201527f746f6b656e2073796d626f6c73206d617920626520696d6974617465642e00006080820152609e0190565b7f5c6e5c6e00000000000000000000000000000000000000000000000000000000815260040190565b60007f7b226e616d65223a220000000000000000000000000000000000000000000000825285516141b8816009850160208a016146a8565b7f222c20226465736372697074696f6e223a22000000000000000000000000000060099184019182015285516141f581601b840160208a016146a8565b855191019061420b81601b8401602089016146a8565b7f222c2022696d616765223a202200000000000000000000000000000000000000601b92909101918201527f646174613a696d6167652f7376672b786d6c3b6261736536342c0000000000006028820152835161426f8160428401602088016146a8565b7f227d000000000000000000000000000000000000000000000000000000000000604292909101918201526044019695505050505050565b60007f20416464726573733a200000000000000000000000000000000000000000000080835287516142e081600a860160208c016146a8565b612e3760f11b600a91850191820152875161430281600c840160208c016146a8565b01600c81019190915285519061431f826016830160208a016146a8565b8181019150507f5c6e46656520546965723a2000000000000000000000000000000000000000006016820152845161435e8160228401602089016146a8565b7f5c6e546f6b656e2049443a20000000000000000000000000000000000000000060229290910191820152835161439c81602e8401602088016146a8565b6143b26143ad602e83850101614157565b614096565b9998505050505050505050565b60007f646174613a6170706c69636174696f6e2f6a736f6e3b6261736536342c000000825282516143f781601d8501602087016146a8565b91909101601d0192915050565b60007f45544373776170202d20000000000000000000000000000000000000000000008252865161443c81600a850160208b016146a8565b80830190507f202d20000000000000000000000000000000000000000000000000000000000080600a830152875161447b81600d850160208c016146a8565b602f60f81b600d9390910192830152865161449d81600e850160208b016146a8565b600e92019182015284516144b88160118401602089016146a8565b7f3c3e0000000000000000000000000000000000000000000000000000000000006011929091019182015283516144f68160138401602088016146a8565b01601301979650505050505050565b60007f54686973204e465420726570726573656e74732061206c69717569646974792082527f706f736974696f6e20696e20612045544373776170205633200000000000000060208301528551614563816039850160208a016146a8565b602d60f81b603991840191820152855161458481603a840160208a016146a8565b7f20706f6f6c2e2000000000000000000000000000000000000000000000000000603a92909101918201527f546865206f776e6572206f662074686973204e46542063616e206d6f6469667960418201527f206f722072656465656d2074686520706f736974696f6e2e5c6e00000000000060618201527f5c6e506f6f6c20416464726573733a2000000000000000000000000000000000607b820152845161463481608b8401602089016146a8565b612e3760f11b608b92909101918201526103cd608d82018561407a565b60006020825282518060208401526146708160408501602087016146a8565b601f01601f19169190910160400192915050565b60405181810167ffffffffffffffff811182821017156146a057fe5b604052919050565b60005b838110156146c35781810151838201526020016146ab565b838111156146d2576000848401525b5050505056fe203c616e696d6174652061646469746976653d2273756d22206174747269627574654e616d653d2273746172744f6666736574222066726f6d3d2230252220746f3d22313030252220626567696e3d22307322206475723d223330732220726570656174436f756e743d22696e646566696e69746522202f3e3c2f74657874506174683e3c2f746578743e3c73746f70206f66667365743d222e39222073746f702d636f6c6f723d227768697465222073746f702d6f7061636974793d223022202f3e3c2f6c696e6561724772616469656e743e3c72656374207374796c653d2266696c7465723a2075726c28236631292220783d223070782220793d22307078222077696474683d22323930707822206865696768743d22353030707822202f3e3c6665496d61676520726573756c743d2270332220786c696e6b3a687265663d22646174613a696d6167652f7376672b786d6c3b6261736536342c3c67206d61736b3d2275726c2823666164652d73796d626f6c29223e3c726563742066696c6c3d226e6f6e652220783d223070782220793d22307078222077696474683d22323930707822206865696768743d22323030707822202f3e203c7465787420793d22373070782220783d2233327078222066696c6c3d2277686974652220666f6e742d66616d696c793d2227436f7572696572204e6577272c206d6f6e6f73706163652220666f6e742d7765696768743d223230302220666f6e742d73697a653d2233367078223e3c7376672077696474683d2232393022206865696768743d22353030222076696577426f783d2230203020323930203530302220786d6c6e733d22687474703a2f2f7777772e77332e6f72672f323030302f7376672270782c2030707829222063783d22307078222063793d223070782220723d22347078222066696c6c3d227768697465222f3e3c2f673e203c616e696d6174652061646469746976653d2273756d22206174747269627574654e616d653d2273746172744f6666736574222066726f6d3d2230252220746f3d22313030252220626567696e3d22307322206475723d223330732220726570656174436f756e743d22696e646566696e69746522202f3e203c2f74657874506174683e3c6d61736b2069643d22666164652d757022206d61736b436f6e74656e74556e6974733d226f626a656374426f756e64696e67426f78223e3c726563742077696474683d223122206865696768743d2231222066696c6c3d2275726c2823677261642d75702922202f3e3c2f6d61736b3e22207374726f6b653d227267626128302c302c302c302e332922207374726f6b652d77696474683d2233327078222066696c6c3d226e6f6e6522207374726f6b652d6c696e656361703d22726f756e6422202f3e203c616e696d6174652061646469746976653d2273756d22206174747269627574654e616d653d2273746172744f6666736574222066726f6d3d2230252220746f3d22313030252220626567696e3d22307322206475723d2233307322203c67207374796c653d227472616e73666f726d3a7472616e736c61746528323970782c20343434707829223e3c636972636c65207374796c653d227472616e73666f726d3a7472616e736c6174653364283c7376672077696474683d2732393027206865696768743d27353030272076696577426f783d2730203020323930203530302720786d6c6e733d27687474703a2f2f7777772e77332e6f72672f323030302f737667273e3c636972636c652063783d27203c67207374796c653d2266696c7465723a75726c2823746f702d726567696f6e2d626c7572293b207472616e73666f726d3a7363616c6528312e35293b207472616e73666f726d2d6f726967696e3a63656e74657220746f703b223e22202f3e3c6665426c656e64206d6f64653d226f7665726c61792220696e3d2270302220696e323d22703122202f3e3c6665426c656e64206d6f64653d226578636c7573696f6e2220696e323d22703222202f3e3c6665426c656e64206d6f64653d226f7665726c61792220696e323d2270332220726573756c743d22626c656e644f757422202f3e3c6665476175737369616e426c7572203c706174682069643d226d696e696d61702220643d224d3233342034343443323334203435372e393439203234322e323120343633203235332034363322202f3e3c6d61736b2069643d226e6f6e6522206d61736b436f6e74656e74556e6974733d226f626a656374426f756e64696e67426f78223e3c726563742077696474683d223122206865696768743d2231222066696c6c3d22776869746522202f3e3c2f6d61736b3e2220783d223070782220793d22307078222077696474683d22323930707822206865696768743d22353030707822202f3e203c616e696d6174652061646469746976653d2273756d22206174747269627574654e616d653d2273746172744f6666736574222066726f6d3d2230252220746f3d22313030252220626567696e3d22307322206475723d223330732220726570656174436f756e743d22696e646566696e69746522202f3e3c7465787420783d22313270782220793d22313770782220666f6e742d66616d696c793d2227436f7572696572204e6577272c206d6f6e6f73706163652220666f6e742d73697a653d2231327078222066696c6c3d227768697465223e3c747370616e2066696c6c3d2272676261283235352c3235352c3235352c302e3629223e4d696e205469636b3a203c2f747370616e3e3c74657874506174682073746172744f66667365743d222d31303025222066696c6c3d2277686974652220666f6e742d66616d696c793d2227436f7572696572204e6577272c206d6f6e6f73706163652220666f6e742d73697a653d22313070782220786c696e6b3a687265663d2223746578742d706174682d61223e3c6c696e6561724772616469656e742069643d22677261642d646f776e222078313d2230222078323d2231222079313d2230222079323d2231223e3c73746f70206f66667365743d22302e30222073746f702d636f6c6f723d227768697465222073746f702d6f7061636974793d223122202f3e3c73746f70206f66667365743d22302e39222073746f702d636f6c6f723d227768697465222073746f702d6f7061636974793d223022202f3e3c2f6c696e6561724772616469656e743e3c66696c7465722069643d226631223e3c6665496d61676520726573756c743d2270302220786c696e6b3a687265663d22646174613a696d6167652f7376672b786d6c3b6261736536342c3c7376672077696474683d2732393027206865696768743d27353030272076696577426f783d2730203020323930203530302720786d6c6e733d27687474703a2f2f7777772e77332e6f72672f323030302f737667273e3c726563742077696474683d27323930707827206865696768743d273530307078272066696c6c3d2723222f3e3c6665496d61676520726573756c743d2270322220786c696e6b3a687265663d22646174613a696d6167652f7376672b786d6c3b6261736536342c3c656c6c697073652063783d22353025222063793d22307078222072783d223138307078222072793d223132307078222066696c6c3d222330303022206f7061636974793d22302e383522202f3e3c2f673e707822206865696768743d2232367078222072783d22387078222072793d22387078222066696c6c3d227267626128302c302c302c302e362922202f3e70782220723d22347078222066696c6c3d22776869746522202f3e3c636972636c652063783d2231312e333437384c32342031324c31342e343334312031322e363532324c32322e333932332031384c31332e373831392031332e373831394c31382032322e333932334c31322e363532322031342e343334314c31322032344c31312e333437382031342e343334314c362032322e33393c726563742066696c6c3d226e6f6e652220783d223070782220793d22307078222077696474683d22323930707822206865696768743d22353030707822202f3e4142434445464748494a4b4c4d4e4f505152535455565758595a6162636465666768696a6b6c6d6e6f707172737475767778797a303132333435363738392b2f20786d6c6e733a786c696e6b3d27687474703a2f2f7777772e77332e6f72672f313939392f786c696e6b273e3c6c696e6561724772616469656e742069643d22677261642d73796d626f6c223e3c73746f70206f66667365743d22302e37222073746f702d636f6c6f723d227768697465222073746f702d6f7061636974793d223122202f3e3c73746f70206f66667365743d222e3935222073746f702d636f6c6f723d227768697465222073746f702d6f7061636974793d223022202f3e3c2f6c696e6561724772616469656e743e207374796c653d227472616e73666f726d3a7472616e736c61746528373270782c313839707829223e3c7265637420783d222d313670782220793d222d31367078222077696474683d22313830707822206865696768743d223138307078222066696c6c3d226e6f6e6522202f3e3c7061746820643d22207374796c653d227472616e73666f726d3a7472616e736c61746528373270782c313839707829223e70782220723d2232347078222066696c6c3d226e6f6e6522207374726f6b653d22776869746522202f3e3c7265637420783d222d313670782220793d222d31367078222077696474683d22313830707822206865696768743d223138307078222066696c6c3d226e6f6e6522202f3e536166654d6174683a206d756c7469706c69636174696f6e206f766572666c6f773c673e3c70617468207374796c653d227472616e73666f726d3a7472616e736c617465283670782c367078292220643d224d313220304c31322e3635323220392e35363538374c313820312e363037374c31332e373831392031302e323138314c32322e3339323320364c31342e34333431203c70617468207374726f6b652d6c696e656361703d22726f756e642220643d224d38203943382e30303030342032322e393439342031362e32303939203238203237203238222066696c6c3d226e6f6e6522207374726f6b653d22776869746522202f3e20726570656174436f756e743d22696e646566696e69746522202f3e3c2f74657874506174683e3c74657874506174682073746172744f66667365743d222d353025222066696c6c3d2277686974652220666f6e742d66616d696c793d2227436f7572696572204e6577272c206d6f6e6f73706163652220666f6e742d73697a653d22313070782220786c696e6b3a687265663d2223746578742d706174682d61223e3c6d61736b2069643d22666164652d646f776e22206d61736b436f6e74656e74556e6974733d226f626a656374426f756e64696e67426f78223e3c726563742077696474683d223122206865696768743d2231222066696c6c3d2275726c2823677261642d646f776e2922202f3e3c2f6d61736b3e22207374726f6b653d2272676261283235352c3235352c3235352c3129222066696c6c3d226e6f6e6522207374726f6b652d6c696e656361703d22726f756e6422202f3e3c2f673e696e3d22626c656e644f75742220737464446576696174696f6e3d22343222202f3e3c2f66696c7465723e203c636c6970506174682069643d22636f726e657273223e3c726563742077696474683d2232393022206865696768743d22353030222072783d223432222072793d22343222202f3e3c2f636c6970506174683e203c67207374796c653d227472616e73666f726d3a7472616e736c61746528323970782c20333834707829223e3c6c696e6561724772616469656e742069643d22677261642d7570222078313d2231222078323d2230222079313d2231222079323d2230223e3c73746f70206f66667365743d22302e30222073746f702d636f6c6f723d227768697465222073746f702d6f7061636974793d223122202f3e32334c31302e323138312031332e373831394c312e363037372031384c392e35363538372031322e363532324c302031324c392e35363538372031312e333437384c312e3630373720364c31302e323138312031302e323138314c3620312e363037374c31312e3334373820392e35363538374c313220305a222066696c6c3d22776869746522202f3e3c67207374796c653d227472616e73666f726d3a7472616e736c6174652832323670782c20333932707829223e3c726563742077696474683d223336707822206865696768743d2233367078222072783d22387078222072793d22387078222066696c6c3d226e6f6e6522207374726f6b653d2272676261283235352c3235352c3235352c302e322922202f3e3c74657874506174682073746172744f66667365743d22353025222066696c6c3d2277686974652220666f6e742d66616d696c793d2227436f7572696572204e6577272c206d6f6e6f73706163652220666f6e742d73697a653d22313070782220786c696e6b3a687265663d2223746578742d706174682d61223e3c7465787420783d22313270782220793d22313770782220666f6e742d66616d696c793d2227436f7572696572204e6577272c206d6f6e6f73706163652220666f6e742d73697a653d2231327078222066696c6c3d227768697465223e3c747370616e2066696c6c3d2272676261283235352c3235352c3235352c302e3629223e4d6178205469636b3a203c2f747370616e3e3c616e696d6174655472616e73666f726d206174747269627574654e616d653d227472616e73666f726d2220747970653d22726f74617465222066726f6d3d22302031382031382220746f3d2233363020313820313822206475723d223130732220726570656174436f756e743d22696e646566696e697465222f3e3c2f673e3c2f673e3c706174682069643d22746578742d706174682d612220643d224d34302031322048323530204132382032382030203020312032373820343020563436302041323820323820302030203120323530203438382048343020413238203238203020302031203132203436302056343020413238203238203020302031203430203132207a22202f3e222f3e3c6665496d61676520726573756c743d2270312220786c696e6b3a687265663d22646174613a696d6167652f7376672b786d6c3b6261736536342c3c6d61736b2069643d22666164652d73796d626f6c22206d61736b436f6e74656e74556e6974733d227573657253706163654f6e557365223e3c726563742077696474683d22323930707822206865696768743d223230307078222066696c6c3d2275726c2823677261642d73796d626f6c2922202f3e3c2f6d61736b3e3c2f646566733e3c7265637420783d22302220793d2230222077696474683d2232393022206865696768743d22353030222072783d223432222072793d223432222066696c6c3d227267626128302c302c302c302922207374726f6b653d2272676261283235352c3235352c3235352c302e322922202f3e3c2f673e3c66696c7465722069643d22746f702d726567696f6e2d626c7572223e3c6665476175737369616e426c757220696e3d22536f75726365477261706869632220737464446576696174696f6e3d22323422202f3e3c2f66696c7465723e3c2f74657874506174683e203c74657874506174682073746172744f66667365743d223025222066696c6c3d2277686974652220666f6e742d66616d696c793d2227436f7572696572204e6577272c206d6f6e6f73706163652220666f6e742d73697a653d22313070782220786c696e6b3a687265663d2223746578742d706174682d61223e3c7465787420746578742d72656e646572696e673d226f7074696d697a655370656564223e5369676e6564536166654d6174683a207375627472616374696f6e206f766572666c6f773c7265637420783d2231362220793d223136222077696474683d2232353822206865696768743d22343638222072783d223236222072793d223236222066696c6c3d227267626128302c302c302c302922207374726f6b653d2272676261283235352c3235352c3235352c302e322922202f3e3c7465787420783d22313270782220793d22313770782220666f6e742d66616d696c793d2227436f7572696572204e6577272c206d6f6e6f73706163652220666f6e742d73697a653d2231327078222066696c6c3d227768697465223e3c747370616e2066696c6c3d2272676261283235352c3235352c3235352c302e3629223e49443a203c2f747370616e3e3c726563742077696474683d223336707822206865696768743d2233367078222072783d22387078222072793d22387078222066696c6c3d226e6f6e6522207374726f6b653d2272676261283235352c3235352c3235352c302e322922202f3e3c2f746578743e3c7465787420793d2231313570782220783d2233327078222066696c6c3d2277686974652220666f6e742d66616d696c793d2227436f7572696572204e6577272c206d6f6e6f73706163652220666f6e742d7765696768743d223230302220666f6e742d73697a653d2233367078223e3c2f746578743e3c2f673e3c67207374796c653d227472616e73666f726d3a7472616e736c6174652832323670782c20343333707829223e203c67207374796c653d227472616e73666f726d3a7472616e736c61746528323970782c20343134707829223ea164736f6c6343000706000a",
  "linkReferences": {},
  "deployedLinkReferences": {}
}