{
  "_format": "hh-sol-artifact-1",
  "contractName": "ETCswapInterfaceMulticall",
  "sourceName": "contracts/lens/ETCswapInterfaceMulticall.sol",
  "abi": [
    {
      "inputs": [],
      "name": "getChainId",
      "outputs": [
        {
          "internalType": "uint256",
          "name": "chainId",
          "type": "uint256"
        }
      ],
      "stateMutability": "pure",
      "type": "function"
    },
    {
      "inputs": [],
      "name": "getCurrentBlockTimestamp",
      "outputs": [
        {
          "internalType": "uint256",
          "name": "timestamp",
          "type": "uint256"
        }
      ],
      "stateMutability": "view",
      "type": "function"
    },
    {
      "inputs": [
        {
          "internalType": "address",
          "name": "addr",
          "type": "address"
        }
      ],
      "name": "getEthBalance",
      "outputs": [
        {
          "internalType": "uint256",
          "name": "balance",
          "type": "uint256"
        }
      ],
      "stateMutability": "view",
      "type": "function"
    },
    {
      "inputs": [
        {
          "components": [
            {
              "internalType": "address",
              "name": "target",
              "type": "address"
            },
            {
              "internalType": "uint256",
              "name": "gasLimit",
              "type": "uint256"
            },
            {
              "internalType": "bytes",
              "name": "callData",
              "type": "bytes"
            }
          ],
          "internalType": "struct ETCswapInterfaceMulticall.Call[]",
          "name": "calls",
          "type": "tuple[]"
        }
      ],
      "name": "multicall",
      "outputs": [
        {
          "internalType": "uint256",
          "name": "blockNumber",
          "type": "uint256"
        },
        {
          "components": [
            {
              "internalType": "bool",
              "name": "success",
              "type": "bool"
            },
            {
              "internalType": "uint256",
              "name": "gasUsed",
              "type": "uint256"
            },
            {
              "internalType": "bytes",
              "name": "returnData",
              "type": "bytes"
            }
          ],
          "internalType": "struct ETCswapInterfaceMulticall.Result[]",
          "name": "returnData",
          "type": "tuple[]"
        }
      ],
      "stateMutability": "nonpayable",
      "type": "function"
    }
  ],
  "bytecode": "0x608060405234801561001057600080fd5b5061057f806100206000396000f3fe608060405234801561001057600080fd5b506004361061004c5760003560e01c80630f28c97d146100515780631749e1e31461006f5780633408e470146100905780634d2301cc14610098575b600080fd5b6100596100ab565b6040516100669190610437565b60405180910390f35b61008261007d3660046102bf565b6100af565b604051610066929190610440565b610059610233565b6100596100a636600461029e565b610238565b4290565b8051439060609067ffffffffffffffff811180156100cc57600080fd5b5060405190808252806020026020018201604052801561010657816020015b6100f3610252565b8152602001906001900390816100eb5790505b50905060005b835181101561022d57600080600086848151811061012657fe5b60200260200101516000015187858151811061013e57fe5b60200260200101516020015188868151811061015657fe5b60200260200101516040015192509250925060005a90506000808573ffffffffffffffffffffffffffffffffffffffff168585604051610196919061041b565b60006040518083038160008787f1925050503d80600081146101d4576040519150601f19603f3d011682016040523d82523d6000602084013e6101d9565b606091505b509150915060005a84039050604051806060016040528084151581526020018281526020018381525089898151811061020e57fe5b602002602001018190525050505050505050808060010191505061010c565b50915091565b603d90565b73ffffffffffffffffffffffffffffffffffffffff163190565b604051806060016040528060001515815260200160008152602001606081525090565b803573ffffffffffffffffffffffffffffffffffffffff8116811461029957600080fd5b919050565b6000602082840312156102af578081fd5b6102b882610275565b9392505050565b600060208083850312156102d1578182fd5b823567ffffffffffffffff808211156102e8578384fd5b818501915085601f8301126102fb578384fd5b81358181111561030757fe5b610314848583020161051e565b81815284810190848601875b8481101561040c57813587017fffffffffffffffffffffffffffffffffffffffffffffffffffffffffffffffe0606081838f0301121561035e578a8bfd5b60408051606081018181108b8211171561037457fe5b8252610381848d01610275565b8152818401358c82015260608401358a81111561039c578d8efd5b8085019450508e603f8501126103b0578c8dfd5b8b8401358a8111156103be57fe5b6103ce8d85601f8401160161051e565b93508084528f838287010111156103e3578d8efd5b808386018e86013783018c018d9052908101919091528552509287019290870190600101610320565b50909998505050505050505050565b6000825161042d818460208701610542565b9190910192915050565b90815260200190565b600060408083018584526020828186015281865180845260609350838701915083838202880101838901875b8381101561050e578983037fffffffffffffffffffffffffffffffffffffffffffffffffffffffffffffffa001855281518051151584528681015187850152880151888401889052805188850181905260806104cd82828801858c01610542565b96880196601f919091017fffffffffffffffffffffffffffffffffffffffffffffffffffffffffffffffe0169490940190930192509085019060010161046c565b50909a9950505050505050505050565b60405181810167ffffffffffffffff8111828210171561053a57fe5b604052919050565b60005b8381101561055d578181015183820152602001610545565b8381111561056c576000848401525b5050505056fea164736f6c6343000706000a",
  "linkReferences": {},
  "deployedLinkReferences": {}
}