{
  "_format": "hh-sol-artifact-1",
  "contractName": "TestETCswapV3Callee",
  "sourceName": "contracts/test/TestETCswapV3Callee.sol",
  "abi": [
    {
      "inputs": [
        {
          "internalType": "int256",
          "name": "amount0Delta",
          "type": "int256"
        },
        {
          "internalType": "int256",
          "name": "amount1Delta",
          "type": "int256"
        },
        {
          "internalType": "bytes",
          "name": "data",
          "type": "bytes"
        }
      ],
      "name": "etcswapV3SwapCallback",
      "outputs": [],
      "stateMutability": "nonpayable",
      "type": "function"
    },
    {
      "inputs": [
        {
          "internalType": "address",
          "name": "pool",
          "type": "address"
        },
        {
          "internalType": "uint256",
          "name": "amount1Out",
          "type": "uint256"
        },
        {
          "internalType": "address",
          "name": "recipient",
          "type": "address"
        },
        {
          "internalType": "uint160",
          "name": "sqrtPriceLimitX96",
          "type": "uint160"
        }
      ],
      "name": "swap0ForExact1",
      "outputs": [],
      "stateMutability": "nonpayable",
      "type": "function"
    },
    {
      "inputs": [
        {
          "internalType": "address",
          "name": "pool",
          "type": "address"
        },
        {
          "internalType": "uint256",
          "name": "amount0Out",
          "type": "uint256"
        },
        {
          "internalType": "address",
          "name": "recipient",
          "type": "address"
        },
        {
          "internalType": "uint160",
          "name": "sqrtPriceLimitX96",
          "type": "uint160"
        }
      ],
      "name": "swap1ForExact0",
      "outputs": [],
      "stateMutability": "nonpayable",
      "type": "function"
    },
    {
      "inputs": [
        {
          "internalType": "address",
          "name": "pool",
          "type": "address"
        },
        {
          "internalType": "uint256",
          "name": "amount0In",
          "type": "uint256"
        },
        {
          "internalType": "address",
          "name": "recipient",
          "type": "address"
        },
        {
          "internalType": "uint160",
          "name": "sqrtPriceLimitX96",
          "type": "uint160"
        }
      ],
      "name": "swapExact0For1",
      "outputs": [],
      "stateMutability": "nonpayable",
      "type": "function"
    },
    {
      "inputs": [
        {
          "internalType": "address",
          "name": "pool",
          "type": "address"
        },
        {
          "internalType": "uint256",
          "name": "amount1In",
          "type": "uint256"
        },
        {
          "internalType": "address",
          "name": "recipient",
          "type": "address"
        },
        {
          "internalType": "uint160",
          "name": "sqrtPriceLimitX96",
          "type": "uint160"
        }
      ],
      "name": "swapExact1For0",
      "outputs": [],
      "stateMutability": "nonpayable",
      "type": "function"
    }
  ],
  "bytecode": "0x608060405234801561001057600080fd5b50610785806100206000396000f3fe608060405234801561001057600080fd5b50600436106100675760003560e01c8063bac7bf7811610050578063bac7bf7814610133578063e2be91091461017c578063f603482c146101c557610067565b80636dfc0ddb1461006c578063b49c5b7e146100b7575b600080fd5b6100b56004803603608081101561008257600080fd5b5073ffffffffffffffffffffffffffffffffffffffff81358116916020810135916040820135811691606001351661020e565b005b6100b5600480360360608110156100cd57600080fd5b8135916020810135918101906060810160408201356401000000008111156100f457600080fd5b82018360208201111561010657600080fd5b8035906020019184600183028401116401000000008311171561012857600080fd5b509092509050610380565b6100b56004803603608081101561014957600080fd5b5073ffffffffffffffffffffffffffffffffffffffff813581169160208101359160408201358116916060013516610607565b6100b56004803603608081101561019257600080fd5b5073ffffffffffffffffffffffffffffffffffffffff8135811691602081013591604082013581169160600135166106fa565b6100b5600480360360808110156101db57600080fd5b5073ffffffffffffffffffffffffffffffffffffffff813581169160208101359160408201358116916060013516610722565b8373ffffffffffffffffffffffffffffffffffffffff1663128acb0883600161023687610746565b8533604051602001808273ffffffffffffffffffffffffffffffffffffffff1681526020019150506040516020818303038152906040526040518663ffffffff1660e01b8152600401808673ffffffffffffffffffffffffffffffffffffffff16815260200185151581526020018481526020018373ffffffffffffffffffffffffffffffffffffffff16815260200180602001828103825283818151815260200191508051906020019080838360005b838110156102ff5781810151838201526020016102e7565b50505050905090810190601f16801561032c5780820380516001836020036101000a031916815260200191505b5096505050505050506040805180830381600087803b15801561034e57600080fd5b505af1158015610362573d6000803e3d6000fd5b505050506040513d604081101561037857600080fd5b505050505050565b60008282602081101561039257600080fd5b503573ffffffffffffffffffffffffffffffffffffffff16905060008513156104d8573373ffffffffffffffffffffffffffffffffffffffff16630dfe16816040518163ffffffff1660e01b815260040160206040518083038186803b1580156103fb57600080fd5b505afa15801561040f573d6000803e3d6000fd5b505050506040513d602081101561042557600080fd5b5051604080517f23b872dd00000000000000000000000000000000000000000000000000000000815273ffffffffffffffffffffffffffffffffffffffff848116600483015233602483015260448201899052915191909216916323b872dd9160648083019260209291908290030181600087803b1580156104a657600080fd5b505af11580156104ba573d6000803e3d6000fd5b505050506040513d60208110156104d057600080fd5b506106009050565b600084136104e257fe5b3373ffffffffffffffffffffffffffffffffffffffff1663d21220a76040518163ffffffff1660e01b815260040160206040518083038186803b15801561052857600080fd5b505afa15801561053c573d6000803e3d6000fd5b505050506040513d602081101561055257600080fd5b5051604080517f23b872dd00000000000000000000000000000000000000000000000000000000815273ffffffffffffffffffffffffffffffffffffffff848116600483015233602483015260448201889052915191909216916323b872dd9160648083019260209291908290030181600087803b1580156105d357600080fd5b505af11580156105e7573d6000803e3d6000fd5b505050506040513d60208110156105fd57600080fd5b50505b5050505050565b8373ffffffffffffffffffffffffffffffffffffffff1663128acb0883600161062f87610746565b6000038533604051602001808273ffffffffffffffffffffffffffffffffffffffff1681526020019150506040516020818303038152906040526040518663ffffffff1660e01b8152600401808673ffffffffffffffffffffffffffffffffffffffff16815260200185151581526020018481526020018373ffffffffffffffffffffffffffffffffffffffff1681526020018060200182810382528381815181526020019150805190602001908083836000838110156102ff5781810151838201526020016102e7565b8373ffffffffffffffffffffffffffffffffffffffff1663128acb0883600061023687610746565b8373ffffffffffffffffffffffffffffffffffffffff1663128acb0883600061062f875b60007f8000000000000000000000000000000000000000000000000000000000000000821061077457600080fd5b509056fea164736f6c6343000706000a",
  "linkReferences": {},
  "deployedLinkReferences": {}
}