{
  "_format": "hh-sol-artifact-1",
  "contractName": "TickLens",
  "sourceName": "contracts/lens/TickLens.sol",
  "abi": [
    {
      "inputs": [
        {
          "internalType": "address",
          "name": "pool",
          "type": "address"
        },
        {
          "internalType": "int16",
          "name": "tickBitmapIndex",
          "type": "int16"
        }
      ],
      "name": "getPopulatedTicksInWord",
      "outputs": [
        {
          "components": [
            {
              "internalType": "int24",
              "name": "tick",
              "type": "int24"
            },
            {
              "internalType": "int128",
              "name": "liquidityNet",
              "type": "int128"
            },
            {
              "internalType": "uint128",
              "name": "liquidityGross",
              "type": "uint128"
            }
          ],
          "internalType": "struct ITickLens.PopulatedTick[]",
          "name": "populatedTicks",
          "type": "tuple[]"
        }
      ],
      "stateMutability": "view",
      "type": "function"
    }
  ],
  "bytecode": "0x608060405234801561001057600080fd5b50610588806100206000396000f3fe608060405234801561001057600080fd5b506004361061002b5760003560e01c8063351fb47814610030575b600080fd5b61004361003e36600461039b565b610059565b60405161005091906104c9565b60405180910390f35b6040517f5339c296000000000000000000000000000000000000000000000000000000008152606090603d9060009073ffffffffffffffffffffffffffffffffffffffff861690635339c296906100b490879060040161053a565b60206040518083038186803b1580156100cc57600080fd5b505afa1580156100e0573d6000803e3d6000fd5b505050506040513d601f19601f8201168201806040525081019061010491906104b1565b90506000805b61010081101561012e576001811b831615610126576001909101905b60010161010a565b5060008673ffffffffffffffffffffffffffffffffffffffff1663d0c93a7c6040518163ffffffff1660e01b815260040160206040518083038186803b15801561017757600080fd5b505afa15801561018b573d6000803e3d6000fd5b505050506040513d601f19601f820116820180604052508101906101af91906103d9565b90508167ffffffffffffffff811180156101c857600080fd5b5060405190808252806020026020018201604052801561020257816020015b6101ef610347565b8152602001906001900390816101e75790505b50945060005b61010081101561033c576001811b841615610334576040517ff30dba93000000000000000000000000000000000000000000000000000000008152600188900b60020b60081b8201830290600090819073ffffffffffffffffffffffffffffffffffffffff8c169063f30dba9390610284908690600401610548565b6101006040518083038186803b15801561029d57600080fd5b505afa1580156102b1573d6000803e3d6000fd5b505050506040513d601f19601f820116820180604052508101906102d59190610401565b5050505050509150915060405180606001604052808460020b815260200182600f0b8152602001836fffffffffffffffffffffffffffffffff168152508987600190039750878151811061032557fe5b60200260200101819052505050505b600101610208565b505050505092915050565b604080516060810182526000808252602082018190529181019190915290565b8051801515811461037757600080fd5b919050565b805161037781610556565b805163ffffffff8116811461037757600080fd5b600080604083850312156103ad578182fd5b82356103b881610556565b91506020830135600181900b81146103ce578182fd5b809150509250929050565b6000602082840312156103ea578081fd5b81518060020b81146103fa578182fd5b9392505050565b600080600080600080600080610100898b03121561041d578384fd5b88516fffffffffffffffffffffffffffffffff8116811461043c578485fd5b80985050602089015180600f0b8114610453578485fd5b80975050604089015195506060890151945060808901518060060b8114610478578485fd5b935061048660a08a0161037c565b925061049460c08a01610387565b91506104a260e08a01610367565b90509295985092959890939650565b6000602082840312156104c2578081fd5b5051919050565b602080825282518282018190526000919060409081850190868401855b8281101561052d578151805160020b855286810151600f0b878601528501516fffffffffffffffffffffffffffffffff1685850152606090930192908501906001016104e6565b5091979650505050505050565b60019190910b815260200190565b60029190910b815260200190565b73ffffffffffffffffffffffffffffffffffffffff8116811461057857600080fd5b5056fea164736f6c6343000706000a",
  "linkReferences": {},
  "deployedLinkReferences": {}
}